{
  "contractName": "DPostit",
  "abi": [
    {
      "inputs": [],
      "payable": false,
      "stateMutability": "nonpayable",
      "type": "constructor"
    },
    {
      "anonymous": false,
      "inputs": [
        {
          "indexed": false,
          "name": "fileName",
          "type": "string"
        },
        {
          "indexed": false,
          "name": "lineNumber",
          "type": "uint256"
        }
      ],
      "name": "__CoverageDPostit",
      "type": "event"
    },
    {
      "anonymous": false,
      "inputs": [
        {
          "indexed": false,
          "name": "fileName",
          "type": "string"
        },
        {
          "indexed": false,
          "name": "fnId",
          "type": "uint256"
        }
      ],
      "name": "__FunctionCoverageDPostit",
      "type": "event"
    },
    {
      "anonymous": false,
      "inputs": [
        {
          "indexed": false,
          "name": "fileName",
          "type": "string"
        },
        {
          "indexed": false,
          "name": "statementId",
          "type": "uint256"
        }
      ],
      "name": "__StatementCoverageDPostit",
      "type": "event"
    },
    {
      "anonymous": false,
      "inputs": [
        {
          "indexed": false,
          "name": "fileName",
          "type": "string"
        },
        {
          "indexed": false,
          "name": "branchId",
          "type": "uint256"
        },
        {
          "indexed": false,
          "name": "locationIdx",
          "type": "uint256"
        }
      ],
      "name": "__BranchCoverageDPostit",
      "type": "event"
    },
    {
      "anonymous": false,
      "inputs": [
        {
          "indexed": false,
          "name": "fileName",
          "type": "string"
        },
        {
          "indexed": false,
          "name": "branchId",
          "type": "uint256"
        }
      ],
      "name": "__AssertPreCoverageDPostit",
      "type": "event"
    },
    {
      "anonymous": false,
      "inputs": [
        {
          "indexed": false,
          "name": "fileName",
          "type": "string"
        },
        {
          "indexed": false,
          "name": "branchId",
          "type": "uint256"
        }
      ],
      "name": "__AssertPostCoverageDPostit",
      "type": "event"
    },
    {
      "constant": false,
      "inputs": [],
      "name": "listPosts",
      "outputs": [
        {
          "name": "data",
          "type": "string"
        }
      ],
      "payable": false,
      "stateMutability": "nonpayable",
      "type": "function"
    },
    {
      "constant": false,
      "inputs": [
        {
          "name": "name",
          "type": "string"
        },
        {
          "name": "description",
          "type": "string"
        },
        {
          "name": "url",
          "type": "string"
        }
      ],
      "name": "savePost",
      "outputs": [
        {
          "name": "",
          "type": "uint256"
        }
      ],
      "payable": false,
      "stateMutability": "nonpayable",
      "type": "function"
    },
    {
      "constant": false,
      "inputs": [
        {
          "name": "postIndex",
          "type": "uint256"
        }
      ],
      "name": "getPost",
      "outputs": [
        {
          "name": "",
          "type": "string"
        }
      ],
      "payable": false,
      "stateMutability": "nonpayable",
      "type": "function"
    },
    {
      "constant": false,
      "inputs": [
        {
          "name": "postIndex",
          "type": "uint256"
        }
      ],
      "name": "payForAccess",
      "outputs": [
        {
          "name": "",
          "type": "string"
        }
      ],
      "payable": true,
      "stateMutability": "payable",
      "type": "function"
    },
    {
      "constant": false,
      "inputs": [
        {
          "name": "postIndex",
          "type": "uint256"
        }
      ],
      "name": "deletePost",
      "outputs": [
        {
          "name": "",
          "type": "bool"
        }
      ],
      "payable": false,
      "stateMutability": "nonpayable",
      "type": "function"
    }
  ],
  "bytecode": "0x60806040526103e86001553480156200001757600080fd5b507f1bacaea17518160ca92d0dabbebf84e06d26e80416e6c5ca6b1d3468817c074a600160405180806020018381526020018281038252603881526020018062005075603891396040019250505060405180910390a17f2203ed3156553827f25097b9bac1eb7f1e1081c2c67c39325235ae54e3eacfd0600960405180806020018381526020018281038252603881526020018062005075603891396040019250505060405180910390a17f06c06e22df4cf1050b9c79841f0acbb55f6defa5d17e32c5b7faaaad359966ee600160405180806020018381526020018281038252603881526020018062005075603891396040019250505060405180910390a1336000806101000a81548173ffffffffffffffffffffffffffffffffffffffff021916908373ffffffffffffffffffffffffffffffffffffffff160217905550614f0e80620001676000396000f3fe60806040526004361061004a5760003560e01c8063094cd5ee1461004f578063256dd92e146100a257806340731c24146101325780637ee72898146101e6578063e10878e21461028d575b600080fd5b34801561005b57600080fd5b506100886004803603602081101561007257600080fd5b8101908080359060200190929190505050610497565b604051808215151515815260200191505060405180910390f35b3480156100ae57600080fd5b506100b7610b89565b6040518080602001828103825283818151815260200191508051906020019080838360005b838110156100f75780820151818401526020810190506100dc565b50505050905090810190601f1680156101245780820380516001836020036101000a031916815260200191505b509250505060405180910390f35b34801561013e57600080fd5b5061016b6004803603602081101561015557600080fd5b81019080803590602001909291905050506111b8565b6040518080602001828103825283818151815260200191508051906020019080838360005b838110156101ab578082015181840152602081019050610190565b50505050905090810190601f1680156101d85780820380516001836020036101000a031916815260200191505b509250505060405180910390f35b610212600480360360208110156101fc57600080fd5b81019080803590602001909291905050506116c3565b6040518080602001828103825283818151815260200191508051906020019080838360005b83811015610252578082015181840152602081019050610237565b50505050905090810190601f16801561027f5780820380516001836020036101000a031916815260200191505b509250505060405180910390f35b34801561029957600080fd5b50610481600480360360608110156102b057600080fd5b81019080803590602001906401000000008111156102cd57600080fd5b8201836020820111156102df57600080fd5b8035906020019184600183028401116401000000008311171561030157600080fd5b91908080601f016020809104026020016040519081016040528093929190818152602001838380828437600081840152601f19601f8201169050808301925050505050505091929192908035906020019064010000000081111561036457600080fd5b82018360208201111561037657600080fd5b8035906020019184600183028401116401000000008311171561039857600080fd5b91908080601f016020809104026020016040519081016040528093929190818152602001838380828437600081840152601f19601f820116905080830192505050505050509192919290803590602001906401000000008111156103fb57600080fd5b82018360208201111561040d57600080fd5b8035906020019184600183028401116401000000008311171561042f57600080fd5b91908080601f016020809104026020016040519081016040528093929190818152602001838380828437600081840152601f19601f820116905080830192505050505050509192919290505050612145565b6040518082815260200191505060405180910390f35b60007f1bacaea17518160ca92d0dabbebf84e06d26e80416e6c5ca6b1d3468817c074a6002604051808060200183815260200182810382526038815260200180614e75603891396040019250505060405180910390a17f2203ed3156553827f25097b9bac1eb7f1e1081c2c67c39325235ae54e3eacfd06012604051808060200183815260200182810382526038815260200180614e75603891396040019250505060405180910390a17f508fe579a8e555fb3e366cd5c570961805520bfd49efefec18c9c2e99f3f32d76001604051808060200183815260200182810382526038815260200180614e75603891396040019250505060405180910390a17f06c06e22df4cf1050b9c79841f0acbb55f6defa5d17e32c5b7faaaad359966ee6002604051808060200183815260200182810382526038815260200180614e75603891396040019250505060405180910390a16000809054906101000a900473ffffffffffffffffffffffffffffffffffffffff1673ffffffffffffffffffffffffffffffffffffffff163373ffffffffffffffffffffffffffffffffffffffff16146106ab576040517f08c379a00000000000000000000000000000000000000000000000000000000081526004018080602001828103825260208152602001807f596f7520617265206e6f742061626c6520746f2064656c65746520706f73742e81525060200191505060405180910390fd5b7fff809b6dc755115126121372ef5d5c5c4a4f5c4dcafb5b40d1019d3924f79b016001604051808060200183815260200182810382526038815260200180614e75603891396040019250505060405180910390a17f2203ed3156553827f25097b9bac1eb7f1e1081c2c67c39325235ae54e3eacfd06013604051808060200183815260200182810382526038815260200180614e75603891396040019250505060405180910390a1817f1bacaea17518160ca92d0dabbebf84e06d26e80416e6c5ca6b1d3468817c074a6004604051808060200183815260200182810382526038815260200180614e75603891396040019250505060405180910390a17f2203ed3156553827f25097b9bac1eb7f1e1081c2c67c39325235ae54e3eacfd06024604051808060200183815260200182810382526038815260200180614e75603891396040019250505060405180910390a17f508fe579a8e555fb3e366cd5c570961805520bfd49efefec18c9c2e99f3f32d76005604051808060200183815260200182810382526038815260200180614e75603891396040019250505060405180910390a17f06c06e22df4cf1050b9c79841f0acbb55f6defa5d17e32c5b7faaaad359966ee6006604051808060200183815260200182810382526038815260200180614e75603891396040019250505060405180910390a1600115156108b360038361290c565b151514610928576040517f08c379a00000000000000000000000000000000000000000000000000000000081526004018080602001828103825260138152602001807f506f737420646f6573206e6f742065786973740000000000000000000000000081525060200191505060405180910390fd5b7fff809b6dc755115126121372ef5d5c5c4a4f5c4dcafb5b40d1019d3924f79b016005604051808060200183815260200182810382526038815260200180614e75603891396040019250505060405180910390a17f2203ed3156553827f25097b9bac1eb7f1e1081c2c67c39325235ae54e3eacfd06025604051808060200183815260200182810382526038815260200180614e75603891396040019250505060405180910390a17f1bacaea17518160ca92d0dabbebf84e06d26e80416e6c5ca6b1d3468817c074a600a604051808060200183815260200182810382526038815260200180614e75603891396040019250505060405180910390a17f2203ed3156553827f25097b9bac1eb7f1e1081c2c67c39325235ae54e3eacfd06070604051808060200183815260200182810382526038815260200180614e75603891396040019250505060405180910390a17f06c06e22df4cf1050b9c79841f0acbb55f6defa5d17e32c5b7faaaad359966ee6015604051808060200183815260200182810382526038815260200180614e75603891396040019250505060405180910390a1610ad7600384612a2e565b7f2203ed3156553827f25097b9bac1eb7f1e1081c2c67c39325235ae54e3eacfd06071604051808060200183815260200182810382526038815260200180614e75603891396040019250505060405180910390a17f06c06e22df4cf1050b9c79841f0acbb55f6defa5d17e32c5b7faaaad359966ee6016604051808060200183815260200182810382526038815260200180614e75603891396040019250505060405180910390a16001915050919050565b60607f1bacaea17518160ca92d0dabbebf84e06d26e80416e6c5ca6b1d3468817c074a6006604051808060200183815260200182810382526038815260200180614e75603891396040019250505060405180910390a17f2203ed3156553827f25097b9bac1eb7f1e1081c2c67c39325235ae54e3eacfd0602e604051808060200183815260200182810382526038815260200180614e75603891396040019250505060405180910390a17f06c06e22df4cf1050b9c79841f0acbb55f6defa5d17e32c5b7faaaad359966ee6008604051808060200183815260200182810382526038815260200180614e75603891396040019250505060405180910390a16040518060400160405280600181526020017f5b0000000000000000000000000000000000000000000000000000000000000081525090507f2203ed3156553827f25097b9bac1eb7f1e1081c2c67c39325235ae54e3eacfd0602f604051808060200183815260200182810382526038815260200180614e75603891396040019250505060405180910390a17f06c06e22df4cf1050b9c79841f0acbb55f6defa5d17e32c5b7faaaad359966ee6009604051808060200183815260200182810382526038815260200180614e75603891396040019250505060405180910390a16000610d736003612c4a565b90505b610d81600382612d5a565b15611077577f2203ed3156553827f25097b9bac1eb7f1e1081c2c67c39325235ae54e3eacfd06032604051808060200183815260200182810382526038815260200180614e75603891396040019250505060405180910390a17f06c06e22df4cf1050b9c79841f0acbb55f6defa5d17e32c5b7faaaad359966ee600a604051808060200183815260200182810382526038815260200180614e75603891396040019250505060405180910390a16000606080610e3e600385612e6a565b50509250925092507f2203ed3156553827f25097b9bac1eb7f1e1081c2c67c39325235ae54e3eacfd06039604051808060200183815260200182810382526038815260200180614e75603891396040019250505060405180910390a17f06c06e22df4cf1050b9c79841f0acbb55f6defa5d17e32c5b7faaaad359966ee600b604051808060200183815260200182810382526038815260200180614e75603891396040019250505060405180910390a184610efa848484613490565b6003600201548614610f41576040518060400160405280600281526020017f2c20000000000000000000000000000000000000000000000000000000000000815250610f52565b604051806020016040528060008152505b6040516020018084805190602001908083835b60208310610f885780518252602082019150602081019050602083039250610f65565b6001836020036101000a03801982511681845116808217855250505050505090500183805190602001908083835b60208310610fd95780518252602082019150602081019050602083039250610fb6565b6001836020036101000a03801982511681845116808217855250505050505090500182805190602001908083835b6020831061102a5780518252602082019150602081019050602083039250611007565b6001836020036101000a03801982511681845116808217855250505050505090500193505050506040516020818303038152906040529450505050611070600382613840565b9050610d76565b507f2203ed3156553827f25097b9bac1eb7f1e1081c2c67c39325235ae54e3eacfd06041604051808060200183815260200182810382526038815260200180614e75603891396040019250505060405180910390a17f06c06e22df4cf1050b9c79841f0acbb55f6defa5d17e32c5b7faaaad359966ee600c604051808060200183815260200182810382526038815260200180614e75603891396040019250505060405180910390a1806040516020018082805190602001908083835b602083106111575780518252602082019150602081019050602083039250611134565b6001836020036101000a038019825116818451168082178552505050505050905001807f5d00000000000000000000000000000000000000000000000000000000000000815250600101915050604051602081830303815290604052905090565b6060817f1bacaea17518160ca92d0dabbebf84e06d26e80416e6c5ca6b1d3468817c074a6004604051808060200183815260200182810382526038815260200180614e75603891396040019250505060405180910390a17f2203ed3156553827f25097b9bac1eb7f1e1081c2c67c39325235ae54e3eacfd06024604051808060200183815260200182810382526038815260200180614e75603891396040019250505060405180910390a17f508fe579a8e555fb3e366cd5c570961805520bfd49efefec18c9c2e99f3f32d76005604051808060200183815260200182810382526038815260200180614e75603891396040019250505060405180910390a17f06c06e22df4cf1050b9c79841f0acbb55f6defa5d17e32c5b7faaaad359966ee6006604051808060200183815260200182810382526038815260200180614e75603891396040019250505060405180910390a16001151561131a60038361290c565b15151461138f576040517f08c379a00000000000000000000000000000000000000000000000000000000081526004018080602001828103825260138152602001807f506f737420646f6573206e6f742065786973740000000000000000000000000081525060200191505060405180910390fd5b7fff809b6dc755115126121372ef5d5c5c4a4f5c4dcafb5b40d1019d3924f79b016005604051808060200183815260200182810382526038815260200180614e75603891396040019250505060405180910390a17f2203ed3156553827f25097b9bac1eb7f1e1081c2c67c39325235ae54e3eacfd06025604051808060200183815260200182810382526038815260200180614e75603891396040019250505060405180910390a17f1bacaea17518160ca92d0dabbebf84e06d26e80416e6c5ca6b1d3468817c074a6008604051808060200183815260200182810382526038815260200180614e75603891396040019250505060405180910390a17f2203ed3156553827f25097b9bac1eb7f1e1081c2c67c39325235ae54e3eacfd06057604051808060200183815260200182810382526038815260200180614e75603891396040019250505060405180910390a17f06c06e22df4cf1050b9c79841f0acbb55f6defa5d17e32c5b7faaaad359966ee600f604051808060200183815260200182810382526038815260200180614e75603891396040019250505060405180910390a16000606080611543600387612e6a565b50509250925092507f2203ed3156553827f25097b9bac1eb7f1e1081c2c67c39325235ae54e3eacfd0605e604051808060200183815260200182810382526038815260200180614e75603891396040019250505060405180910390a17f06c06e22df4cf1050b9c79841f0acbb55f6defa5d17e32c5b7faaaad359966ee6010604051808060200183815260200182810382526038815260200180614e75603891396040019250505060405180910390a16115fe838383613490565b60405160200180807f220000000000000000000000000000000000000000000000000000000000000081525060010182805190602001908083835b6020831061165c5780518252602082019150602081019050602083039250611639565b6001836020036101000a038019825116818451168082178552505050505050905001807f2700000000000000000000000000000000000000000000000000000000000000815250600101915050604051602081830303815290604052945050505050919050565b60607f1bacaea17518160ca92d0dabbebf84e06d26e80416e6c5ca6b1d3468817c074a6005604051808060200183815260200182810382526038815260200180614e75603891396040019250505060405180910390a17f2203ed3156553827f25097b9bac1eb7f1e1081c2c67c39325235ae54e3eacfd06029604051808060200183815260200182810382526038815260200180614e75603891396040019250505060405180910390a17f508fe579a8e555fb3e366cd5c570961805520bfd49efefec18c9c2e99f3f32d76006604051808060200183815260200182810382526038815260200180614e75603891396040019250505060405180910390a17f06c06e22df4cf1050b9c79841f0acbb55f6defa5d17e32c5b7faaaad359966ee6007604051808060200183815260200182810382526038815260200180614e75603891396040019250505060405180910390a1600154341015611870576040517f08c379a0000000000000000000000000000000000000000000000000000000008152600401808060200182810382526035815260200180614e046035913960400191505060405180910390fd5b7fff809b6dc755115126121372ef5d5c5c4a4f5c4dcafb5b40d1019d3924f79b016006604051808060200183815260200182810382526038815260200180614e75603891396040019250505060405180910390a17f2203ed3156553827f25097b9bac1eb7f1e1081c2c67c39325235ae54e3eacfd0602a604051808060200183815260200182810382526038815260200180614e75603891396040019250505060405180910390a1817f1bacaea17518160ca92d0dabbebf84e06d26e80416e6c5ca6b1d3468817c074a6004604051808060200183815260200182810382526038815260200180614e75603891396040019250505060405180910390a17f2203ed3156553827f25097b9bac1eb7f1e1081c2c67c39325235ae54e3eacfd06024604051808060200183815260200182810382526038815260200180614e75603891396040019250505060405180910390a17f508fe579a8e555fb3e366cd5c570961805520bfd49efefec18c9c2e99f3f32d76005604051808060200183815260200182810382526038815260200180614e75603891396040019250505060405180910390a17f06c06e22df4cf1050b9c79841f0acbb55f6defa5d17e32c5b7faaaad359966ee6006604051808060200183815260200182810382526038815260200180614e75603891396040019250505060405180910390a160011515611a7860038361290c565b151514611aed576040517f08c379a00000000000000000000000000000000000000000000000000000000081526004018080602001828103825260138152602001807f506f737420646f6573206e6f742065786973740000000000000000000000000081525060200191505060405180910390fd5b7fff809b6dc755115126121372ef5d5c5c4a4f5c4dcafb5b40d1019d3924f79b016005604051808060200183815260200182810382526038815260200180614e75603891396040019250505060405180910390a17f2203ed3156553827f25097b9bac1eb7f1e1081c2c67c39325235ae54e3eacfd06025604051808060200183815260200182810382526038815260200180614e75603891396040019250505060405180910390a17f1bacaea17518160ca92d0dabbebf84e06d26e80416e6c5ca6b1d3468817c074a6009604051808060200183815260200182810382526038815260200180614e75603891396040019250505060405180910390a17f2203ed3156553827f25097b9bac1eb7f1e1081c2c67c39325235ae54e3eacfd06062604051808060200183815260200182810382526038815260200180614e75603891396040019250505060405180910390a17f06c06e22df4cf1050b9c79841f0acbb55f6defa5d17e32c5b7faaaad359966ee6011604051808060200183815260200182810382526038815260200180614e75603891396040019250505060405180910390a160606000611ca0600386612e6a565b945094505050507f2203ed3156553827f25097b9bac1eb7f1e1081c2c67c39325235ae54e3eacfd0606a604051808060200183815260200182810382526038815260200180614e75603891396040019250505060405180910390a17f508fe579a8e555fb3e366cd5c570961805520bfd49efefec18c9c2e99f3f32d76007604051808060200183815260200182810382526038815260200180614e75603891396040019250505060405180910390a17f06c06e22df4cf1050b9c79841f0acbb55f6defa5d17e32c5b7faaaad359966ee6012604051808060200183815260200182810382526038815260200180614e75603891396040019250505060405180910390a13373ffffffffffffffffffffffffffffffffffffffff168173ffffffffffffffffffffffffffffffffffffffff161415611e45576040517f08c379a000000000000000000000000000000000000000000000000000000000815260040180806020018281038252601f8152602001807f596f752063616e206e6f7420646f6e61746520746f20796f757273656c66210081525060200191505060405180910390fd5b7fff809b6dc755115126121372ef5d5c5c4a4f5c4dcafb5b40d1019d3924f79b016007604051808060200183815260200182810382526038815260200180614e75603891396040019250505060405180910390a17f2203ed3156553827f25097b9bac1eb7f1e1081c2c67c39325235ae54e3eacfd0606b604051808060200183815260200182810382526038815260200180614e75603891396040019250505060405180910390a17f06c06e22df4cf1050b9c79841f0acbb55f6defa5d17e32c5b7faaaad359966ee6013604051808060200183815260200182810382526038815260200180614e75603891396040019250505060405180910390a18073ffffffffffffffffffffffffffffffffffffffff166108fc349081150290604051600060405180830381858888f19350505050158015611f87573d6000803e3d6000fd5b507f2203ed3156553827f25097b9bac1eb7f1e1081c2c67c39325235ae54e3eacfd0606c604051808060200183815260200182810382526038815260200180614e75603891396040019250505060405180910390a17f06c06e22df4cf1050b9c79841f0acbb55f6defa5d17e32c5b7faaaad359966ee6014604051808060200183815260200182810382526038815260200180614e75603891396040019250505060405180910390a18160405160200180807f7b2275726c223a00000000000000000000000000000000000000000000000000815250600701807f220000000000000000000000000000000000000000000000000000000000000081525060010182805190602001908083835b602083106120b75780518252602082019150602081019050602083039250612094565b6001836020036101000a038019825116818451168082178552505050505050905001807f2200000000000000000000000000000000000000000000000000000000000000815250600101807f227d0000000000000000000000000000000000000000000000000000000000008152506002019150506040516020818303038152906040529350505050919050565b60008383837f1bacaea17518160ca92d0dabbebf84e06d26e80416e6c5ca6b1d3468817c074a6003604051808060200183815260200182810382526038815260200180614e75603891396040019250505060405180910390a17f2203ed3156553827f25097b9bac1eb7f1e1081c2c67c39325235ae54e3eacfd0601b604051808060200183815260200182810382526038815260200180614e75603891396040019250505060405180910390a17f508fe579a8e555fb3e366cd5c570961805520bfd49efefec18c9c2e99f3f32d76002604051808060200183815260200182810382526038815260200180614e75603891396040019250505060405180910390a17f06c06e22df4cf1050b9c79841f0acbb55f6defa5d17e32c5b7faaaad359966ee6003604051808060200183815260200182810382526038815260200180614e75603891396040019250505060405180910390a16000835111612311576040517f08c379a00000000000000000000000000000000000000000000000000000000081526004018080602001828103825260168152602001807f4e616d65206669656c642069732072657175697265640000000000000000000081525060200191505060405180910390fd5b7fff809b6dc755115126121372ef5d5c5c4a4f5c4dcafb5b40d1019d3924f79b016002604051808060200183815260200182810382526038815260200180614e75603891396040019250505060405180910390a17f2203ed3156553827f25097b9bac1eb7f1e1081c2c67c39325235ae54e3eacfd0601c604051808060200183815260200182810382526038815260200180614e75603891396040019250505060405180910390a17f508fe579a8e555fb3e366cd5c570961805520bfd49efefec18c9c2e99f3f32d76003604051808060200183815260200182810382526038815260200180614e75603891396040019250505060405180910390a17f06c06e22df4cf1050b9c79841f0acbb55f6defa5d17e32c5b7faaaad359966ee6004604051808060200183815260200182810382526038815260200180614e75603891396040019250505060405180910390a160008251116124d8576040517f08c379a000000000000000000000000000000000000000000000000000000000815260040180806020018281038252601d8152602001807f4465736372697074696f6e206669656c6420697320726571756972656400000081525060200191505060405180910390fd5b7fff809b6dc755115126121372ef5d5c5c4a4f5c4dcafb5b40d1019d3924f79b016003604051808060200183815260200182810382526038815260200180614e75603891396040019250505060405180910390a17f2203ed3156553827f25097b9bac1eb7f1e1081c2c67c39325235ae54e3eacfd0601d604051808060200183815260200182810382526038815260200180614e75603891396040019250505060405180910390a17f508fe579a8e555fb3e366cd5c570961805520bfd49efefec18c9c2e99f3f32d76004604051808060200183815260200182810382526038815260200180614e75603891396040019250505060405180910390a17f06c06e22df4cf1050b9c79841f0acbb55f6defa5d17e32c5b7faaaad359966ee6005604051808060200183815260200182810382526038815260200180614e75603891396040019250505060405180910390a1600081511161269f576040517f08c379a00000000000000000000000000000000000000000000000000000000081526004018080602001828103825260158152602001807f55726c206669656c64206973207265717569726564000000000000000000000081525060200191505060405180910390fd5b7fff809b6dc755115126121372ef5d5c5c4a4f5c4dcafb5b40d1019d3924f79b016004604051808060200183815260200182810382526038815260200180614e75603891396040019250505060405180910390a17f2203ed3156553827f25097b9bac1eb7f1e1081c2c67c39325235ae54e3eacfd0601e604051808060200183815260200182810382526038815260200180614e75603891396040019250505060405180910390a17f1bacaea17518160ca92d0dabbebf84e06d26e80416e6c5ca6b1d3468817c074a6007604051808060200183815260200182810382526038815260200180614e75603891396040019250505060405180910390a17f2203ed3156553827f25097b9bac1eb7f1e1081c2c67c39325235ae54e3eacfd0604e604051808060200183815260200182810382526038815260200180614e75603891396040019250505060405180910390a17f06c06e22df4cf1050b9c79841f0acbb55f6defa5d17e32c5b7faaaad359966ee600d604051808060200183815260200182810382526038815260200180614e75603891396040019250505060405180910390a1612851600388888833613b47565b507f2203ed3156553827f25097b9bac1eb7f1e1081c2c67c39325235ae54e3eacfd0604f604051808060200183815260200182810382526038815260200180614e75603891396040019250505060405180910390a17f06c06e22df4cf1050b9c79841f0acbb55f6defa5d17e32c5b7faaaad359966ee600e604051808060200183815260200182810382526038815260200180614e75603891396040019250505060405180910390a160036002015493505050509392505050565b60007f6f61fcd05ebf53c8011390fffae9920a16ae018728266fa779378a866489881c600460405180806020018381526020018281038252603c815260200180614e39603c91396040019250505060405180910390a17fd58de87c4595cf9a31408dc5d4f37abcd3c22f90c67353dde4daabcaf331ea24604160405180806020018381526020018281038252603c815260200180614e39603c91396040019250505060405180910390a17f74e1ac8c21a78462b105c880756ea2c03e7b8afd283962c100d2c7b8dfce5cc4600f60405180806020018381526020018281038252603c815260200180614e39603c91396040019250505060405180910390a160008360000160008481526020019081526020016000206000015411905092915050565b7f6f61fcd05ebf53c8011390fffae9920a16ae018728266fa779378a866489881c600360405180806020018381526020018281038252603c815260200180614e39603c91396040019250505060405180910390a17fd58de87c4595cf9a31408dc5d4f37abcd3c22f90c67353dde4daabcaf331ea24603c60405180806020018381526020018281038252603c815260200180614e39603c91396040019250505060405180910390a17f74e1ac8c21a78462b105c880756ea2c03e7b8afd283962c100d2c7b8dfce5cc4600e60405180806020018381526020018281038252603c815260200180614e39603c91396040019250505060405180910390a16001826001018360000160008481526020019081526020016000206000015481548110612b5357fe5b906000526020600020906002020160010160006101000a81548160ff0219169083151502179055507fd58de87c4595cf9a31408dc5d4f37abcd3c22f90c67353dde4daabcaf331ea24603d60405180806020018381526020018281038252603c815260200180614e39603c91396040019250505060405180910390a1816000016000828152602001908152602001600020600080820160009055600182016000612bfd9190614ca9565b600282016000612c0d9190614ca9565b600382016000612c1d9190614ca9565b6004820160006101000a81549073ffffffffffffffffffffffffffffffffffffffff021916905550505050565b60007f6f61fcd05ebf53c8011390fffae9920a16ae018728266fa779378a866489881c600560405180806020018381526020018281038252603c815260200180614e39603c91396040019250505060405180910390a17fd58de87c4595cf9a31408dc5d4f37abcd3c22f90c67353dde4daabcaf331ea24604560405180806020018381526020018281038252603c815260200180614e39603c91396040019250505060405180910390a17f74e1ac8c21a78462b105c880756ea2c03e7b8afd283962c100d2c7b8dfce5cc4601060405180806020018381526020018281038252603c815260200180614e39603c91396040019250505060405180910390a1612d53826000613840565b9050919050565b60007f6f61fcd05ebf53c8011390fffae9920a16ae018728266fa779378a866489881c600660405180806020018381526020018281038252603c815260200180614e39603c91396040019250505060405180910390a17fd58de87c4595cf9a31408dc5d4f37abcd3c22f90c67353dde4daabcaf331ea24604960405180806020018381526020018281038252603c815260200180614e39603c91396040019250505060405180910390a17f74e1ac8c21a78462b105c880756ea2c03e7b8afd283962c100d2c7b8dfce5cc4601160405180806020018381526020018281038252603c815260200180614e39603c91396040019250505060405180910390a182600101805490508210905092915050565b6000606080606060007f6f61fcd05ebf53c8011390fffae9920a16ae018728266fa779378a866489881c600260405180806020018381526020018281038252603c815260200180614e39603c91396040019250505060405180910390a17fd58de87c4595cf9a31408dc5d4f37abcd3c22f90c67353dde4daabcaf331ea24603460405180806020018381526020018281038252603c815260200180614e39603c91396040019250505060405180910390a17f74e1ac8c21a78462b105c880756ea2c03e7b8afd283962c100d2c7b8dfce5cc4600960405180806020018381526020018281038252603c815260200180614e39603c91396040019250505060405180910390a1866001018681548110612f7e57fe5b90600052602060002090600202016000015494507fd58de87c4595cf9a31408dc5d4f37abcd3c22f90c67353dde4daabcaf331ea24603560405180806020018381526020018281038252603c815260200180614e39603c91396040019250505060405180910390a17f74e1ac8c21a78462b105c880756ea2c03e7b8afd283962c100d2c7b8dfce5cc4600a60405180806020018381526020018281038252603c815260200180614e39603c91396040019250505060405180910390a18660000160008681526020019081526020016000206001018054600181600116156101000203166002900480601f0160208091040260200160405190810160405280929190818152602001828054600181600116156101000203166002900480156130e65780601f106130bb576101008083540402835291602001916130e6565b820191906000526020600020905b8154815290600101906020018083116130c957829003601f168201915b505050505093507fd58de87c4595cf9a31408dc5d4f37abcd3c22f90c67353dde4daabcaf331ea24603660405180806020018381526020018281038252603c815260200180614e39603c91396040019250505060405180910390a17f74e1ac8c21a78462b105c880756ea2c03e7b8afd283962c100d2c7b8dfce5cc4600b60405180806020018381526020018281038252603c815260200180614e39603c91396040019250505060405180910390a18660000160008681526020019081526020016000206002018054600181600116156101000203166002900480601f0160208091040260200160405190810160405280929190818152602001828054600181600116156101000203166002900480156132415780601f1061321657610100808354040283529160200191613241565b820191906000526020600020905b81548152906001019060200180831161322457829003601f168201915b505050505092507fd58de87c4595cf9a31408dc5d4f37abcd3c22f90c67353dde4daabcaf331ea24603760405180806020018381526020018281038252603c815260200180614e39603c91396040019250505060405180910390a17f74e1ac8c21a78462b105c880756ea2c03e7b8afd283962c100d2c7b8dfce5cc4600c60405180806020018381526020018281038252603c815260200180614e39603c91396040019250505060405180910390a18660000160008681526020019081526020016000206002018054600181600116156101000203166002900480601f01602080910402602001604051908101604052809291908181526020018280546001816001161561010002031660029004801561339c5780601f106133715761010080835404028352916020019161339c565b820191906000526020600020905b81548152906001019060200180831161337f57829003601f168201915b505050505091507fd58de87c4595cf9a31408dc5d4f37abcd3c22f90c67353dde4daabcaf331ea24603860405180806020018381526020018281038252603c815260200180614e39603c91396040019250505060405180910390a17f74e1ac8c21a78462b105c880756ea2c03e7b8afd283962c100d2c7b8dfce5cc4600d60405180806020018381526020018281038252603c815260200180614e39603c91396040019250505060405180910390a186600001600086815260200190815260200160002060040160009054906101000a900473ffffffffffffffffffffffffffffffffffffffff1690509295509295909350565b60607ff57be11109de9dfb78b34d8fc9989dd024adfa2d8a68d97a53c8121bbcc148b76001604051808060200183815260200182810382526036815260200180614ead603691396040019250505060405180910390a17fc06545968d0022a7c6b46333bd53a81e4edc859e88e77ec1151784567625fc956009604051808060200183815260200182810382526036815260200180614ead603691396040019250505060405180910390a17f18d9e499cf4c2791fc7a57dda53e05bf8866be50aac005a4aec90ca83d084e056001604051808060200183815260200182810382526036815260200180614ead603691396040019250505060405180910390a1613597846143e0565b838360405160200180807f7b226b6579223a20000000000000000000000000000000000000000000000000815250600801807f220000000000000000000000000000000000000000000000000000000000000081525060010184805190602001908083835b6020831061361f57805182526020820191506020810190506020830392506135fc565b6001836020036101000a038019825116818451168082178552505050505050905001807f2200000000000000000000000000000000000000000000000000000000000000815250600101807f2c20226e616d65223a2000000000000000000000000000000000000000000000815250600a01807f220000000000000000000000000000000000000000000000000000000000000081525060010183805190602001908083835b602083106136e857805182526020820191506020810190506020830392506136c5565b6001836020036101000a038019825116818451168082178552505050505050905001807f2200000000000000000000000000000000000000000000000000000000000000815250600101807f2c20226465736372697074696f6e223a20000000000000000000000000000000815250601101807f220000000000000000000000000000000000000000000000000000000000000081525060010182805190602001908083835b602083106137b1578051825260208201915060208101905060208303925061378e565b6001836020036101000a038019825116818451168082178552505050505050905001807f2200000000000000000000000000000000000000000000000000000000000000815250600101807f7d00000000000000000000000000000000000000000000000000000000000000815250600101935050505060405160208183030381529060405290509392505050565b60007f6f61fcd05ebf53c8011390fffae9920a16ae018728266fa779378a866489881c600760405180806020018381526020018281038252603c815260200180614e39603c91396040019250505060405180910390a17fd58de87c4595cf9a31408dc5d4f37abcd3c22f90c67353dde4daabcaf331ea24604d60405180806020018381526020018281038252603c815260200180614e39603c91396040019250505060405180910390a17f74e1ac8c21a78462b105c880756ea2c03e7b8afd283962c100d2c7b8dfce5cc4601260405180806020018381526020018281038252603c815260200180614e39603c91396040019250505060405180910390a160006001830190507fd58de87c4595cf9a31408dc5d4f37abcd3c22f90c67353dde4daabcaf331ea24604e60405180806020018381526020018281038252603c815260200180614e39603c91396040019250505060405180910390a17f74e1ac8c21a78462b105c880756ea2c03e7b8afd283962c100d2c7b8dfce5cc4601360405180806020018381526020018281038252603c815260200180614e39603c91396040019250505060405180910390a15b836001018054905081108015613a2f5750836001018181548110613a0f57fe5b906000526020600020906002020160010160009054906101000a900460ff165b15613a95577fd58de87c4595cf9a31408dc5d4f37abcd3c22f90c67353dde4daabcaf331ea24604f60405180806020018381526020018281038252603c815260200180614e39603c91396040019250505060405180910390a180806001019150506139ef565b7fd58de87c4595cf9a31408dc5d4f37abcd3c22f90c67353dde4daabcaf331ea24605060405180806020018381526020018281038252603c815260200180614e39603c91396040019250505060405180910390a17f74e1ac8c21a78462b105c880756ea2c03e7b8afd283962c100d2c7b8dfce5cc4601460405180806020018381526020018281038252603c815260200180614e39603c91396040019250505060405180910390a18091505092915050565b60007f6f61fcd05ebf53c8011390fffae9920a16ae018728266fa779378a866489881c600160405180806020018381526020018281038252603c815260200180614e39603c91396040019250505060405180910390a17fd58de87c4595cf9a31408dc5d4f37abcd3c22f90c67353dde4daabcaf331ea24601b60405180806020018381526020018281038252603c815260200180614e39603c91396040019250505060405180910390a17f74e1ac8c21a78462b105c880756ea2c03e7b8afd283962c100d2c7b8dfce5cc4600160405180806020018381526020018281038252603c815260200180614e39603c91396040019250505060405180910390a1600086600201541415613ccb577f01e84113de27af6db414be599389da74b241f09d4a757d3e35c068fb074c7c0b6001600060405180806020018481526020018381526020018281038252603c815260200180614e39603c9139604001935050505060405180910390a1856001018054809190600101613cc59190614cf1565b50613d28565b7f01e84113de27af6db414be599389da74b241f09d4a757d3e35c068fb074c7c0b60018060405180806020018481526020018381526020018281038252603c815260200180614e39603c9139604001935050505060405180910390a15b7fd58de87c4595cf9a31408dc5d4f37abcd3c22f90c67353dde4daabcaf331ea24601d60405180806020018381526020018281038252603c815260200180614e39603c91396040019250505060405180910390a185600201600081548092919060010191905055507fd58de87c4595cf9a31408dc5d4f37abcd3c22f90c67353dde4daabcaf331ea24601e60405180806020018381526020018281038252603c815260200180614e39603c91396040019250505060405180910390a17f74e1ac8c21a78462b105c880756ea2c03e7b8afd283962c100d2c7b8dfce5cc4600260405180806020018381526020018281038252603c815260200180614e39603c91396040019250505060405180910390a184866000016000886002015481526020019081526020016000206001019080519060200190613e68929190614d23565b507fd58de87c4595cf9a31408dc5d4f37abcd3c22f90c67353dde4daabcaf331ea24601f60405180806020018381526020018281038252603c815260200180614e39603c91396040019250505060405180910390a17f74e1ac8c21a78462b105c880756ea2c03e7b8afd283962c100d2c7b8dfce5cc4600360405180806020018381526020018281038252603c815260200180614e39603c91396040019250505060405180910390a183866000016000886002015481526020019081526020016000206002019080519060200190613f41929190614d23565b507fd58de87c4595cf9a31408dc5d4f37abcd3c22f90c67353dde4daabcaf331ea24602060405180806020018381526020018281038252603c815260200180614e39603c91396040019250505060405180910390a17f74e1ac8c21a78462b105c880756ea2c03e7b8afd283962c100d2c7b8dfce5cc4600460405180806020018381526020018281038252603c815260200180614e39603c91396040019250505060405180910390a18286600001600088600201548152602001908152602001600020600301908051906020019061401a929190614d23565b507fd58de87c4595cf9a31408dc5d4f37abcd3c22f90c67353dde4daabcaf331ea24602160405180806020018381526020018281038252603c815260200180614e39603c91396040019250505060405180910390a17f74e1ac8c21a78462b105c880756ea2c03e7b8afd283962c100d2c7b8dfce5cc4600560405180806020018381526020018281038252603c815260200180614e39603c91396040019250505060405180910390a1818660000160008860020154815260200190815260200160002060040160006101000a81548173ffffffffffffffffffffffffffffffffffffffff021916908373ffffffffffffffffffffffffffffffffffffffff1602179055507fd58de87c4595cf9a31408dc5d4f37abcd3c22f90c67353dde4daabcaf331ea24602360405180806020018381526020018281038252603c815260200180614e39603c91396040019250505060405180910390a18560010180548091906001016141889190614cf1565b507fd58de87c4595cf9a31408dc5d4f37abcd3c22f90c67353dde4daabcaf331ea24602460405180806020018381526020018281038252603c815260200180614e39603c91396040019250505060405180910390a17f74e1ac8c21a78462b105c880756ea2c03e7b8afd283962c100d2c7b8dfce5cc4600660405180806020018381526020018281038252603c815260200180614e39603c91396040019250505060405180910390a1856002015486600001600088600201548152602001908152602001600020600001819055507fd58de87c4595cf9a31408dc5d4f37abcd3c22f90c67353dde4daabcaf331ea24602560405180806020018381526020018281038252603c815260200180614e39603c91396040019250505060405180910390a17f74e1ac8c21a78462b105c880756ea2c03e7b8afd283962c100d2c7b8dfce5cc4600760405180806020018381526020018281038252603c815260200180614e39603c91396040019250505060405180910390a185600201548660010187600201548154811061431657fe5b9060005260206000209060020201600001819055507fd58de87c4595cf9a31408dc5d4f37abcd3c22f90c67353dde4daabcaf331ea24602760405180806020018381526020018281038252603c815260200180614e39603c91396040019250505060405180910390a17f74e1ac8c21a78462b105c880756ea2c03e7b8afd283962c100d2c7b8dfce5cc4600860405180806020018381526020018281038252603c815260200180614e39603c91396040019250505060405180910390a16001905095945050505050565b60607ff57be11109de9dfb78b34d8fc9989dd024adfa2d8a68d97a53c8121bbcc148b76002604051808060200183815260200182810382526036815260200180614ead603691396040019250505060405180910390a17fc06545968d0022a7c6b46333bd53a81e4edc859e88e77ec1151784567625fc956011604051808060200183815260200182810382526036815260200180614ead603691396040019250505060405180910390a17f18d9e499cf4c2791fc7a57dda53e05bf8866be50aac005a4aec90ca83d084e056002604051808060200183815260200182810382526036815260200180614ead603691396040019250505060405180910390a160008290507fc06545968d0022a7c6b46333bd53a81e4edc859e88e77ec1151784567625fc956012604051808060200183815260200182810382526036815260200180614ead603691396040019250505060405180910390a17f18d9e499cf4c2791fc7a57dda53e05bf8866be50aac005a4aec90ca83d084e056003604051808060200183815260200182810382526036815260200180614ead603691396040019250505060405180910390a160007fc06545968d0022a7c6b46333bd53a81e4edc859e88e77ec1151784567625fc956013604051808060200183815260200182810382526036815260200180614ead603691396040019250505060405180910390a17f18d9e499cf4c2791fc7a57dda53e05bf8866be50aac005a4aec90ca83d084e056004604051808060200183815260200182810382526036815260200180614ead603691396040019250505060405180910390a15b60008214614754577fc06545968d0022a7c6b46333bd53a81e4edc859e88e77ec1151784567625fc956014604051808060200183815260200182810382526036815260200180614ead603691396040019250505060405180910390a180806001019150507fc06545968d0022a7c6b46333bd53a81e4edc859e88e77ec1151784567625fc956015604051808060200183815260200182810382526036815260200180614ead603691396040019250505060405180910390a17f18d9e499cf4c2791fc7a57dda53e05bf8866be50aac005a4aec90ca83d084e056005604051808060200183815260200182810382526036815260200180614ead603691396040019250505060405180910390a1600a828161474c57fe5b049150614636565b7fc06545968d0022a7c6b46333bd53a81e4edc859e88e77ec1151784567625fc956017604051808060200183815260200182810382526036815260200180614ead603691396040019250505060405180910390a17f18d9e499cf4c2791fc7a57dda53e05bf8866be50aac005a4aec90ca83d084e056006604051808060200183815260200182810382526036815260200180614ead603691396040019250505060405180910390a16060816040519080825280601f01601f1916602001820160405280156148315781602001600182028038833980820191505090505b5090507fc06545968d0022a7c6b46333bd53a81e4edc859e88e77ec1151784567625fc956018604051808060200183815260200182810382526036815260200180614ead603691396040019250505060405180910390a17f18d9e499cf4c2791fc7a57dda53e05bf8866be50aac005a4aec90ca83d084e056007604051808060200183815260200182810382526036815260200180614ead603691396040019250505060405180910390a160006001830390507fc06545968d0022a7c6b46333bd53a81e4edc859e88e77ec1151784567625fc956019604051808060200183815260200182810382526036815260200180614ead603691396040019250505060405180910390a17f18d9e499cf4c2791fc7a57dda53e05bf8866be50aac005a4aec90ca83d084e056008604051808060200183815260200182810382526036815260200180614ead603691396040019250505060405180910390a18593507fc06545968d0022a7c6b46333bd53a81e4edc859e88e77ec1151784567625fc95601b604051808060200183815260200182810382526036815260200180614ead603691396040019250505060405180910390a17f18d9e499cf4c2791fc7a57dda53e05bf8866be50aac005a4aec90ca83d084e056009604051808060200183815260200182810382526036815260200180614ead603691396040019250505060405180910390a15b60008414614bf5577fc06545968d0022a7c6b46333bd53a81e4edc859e88e77ec1151784567625fc95601c604051808060200183815260200182810382526036815260200180614ead603691396040019250505060405180910390a17f18d9e499cf4c2791fc7a57dda53e05bf8866be50aac005a4aec90ca83d084e05600a604051808060200183815260200182810382526036815260200180614ead603691396040019250505060405180910390a1600a8481614af257fe5b0660300160f81b82828060019003935081518110614b0c57fe5b60200101907effffffffffffffffffffffffffffffffffffffffffffffffffffffffffffff1916908160001a9053507fc06545968d0022a7c6b46333bd53a81e4edc859e88e77ec1151784567625fc95601d604051808060200183815260200182810382526036815260200180614ead603691396040019250505060405180910390a17f18d9e499cf4c2791fc7a57dda53e05bf8866be50aac005a4aec90ca83d084e05600b604051808060200183815260200182810382526036815260200180614ead603691396040019250505060405180910390a1600a8481614bed57fe5b049350614a38565b7fc06545968d0022a7c6b46333bd53a81e4edc859e88e77ec1151784567625fc95601f604051808060200183815260200182810382526036815260200180614ead603691396040019250505060405180910390a17f18d9e499cf4c2791fc7a57dda53e05bf8866be50aac005a4aec90ca83d084e05600c604051808060200183815260200182810382526036815260200180614ead603691396040019250505060405180910390a181945050505050919050565b50805460018160011615610100020316600290046000825580601f10614ccf5750614cee565b601f016020900490600052602060002090810190614ced9190614da3565b5b50565b815481835581811115614d1e57600202816002028360005260206000209182019101614d1d9190614dc8565b5b505050565b828054600181600116156101000203166002900490600052602060002090601f016020900481019282601f10614d6457805160ff1916838001178555614d92565b82800160010185558215614d92579182015b82811115614d91578251825591602001919060010190614d76565b5b509050614d9f9190614da3565b5090565b614dc591905b80821115614dc1576000816000905550600101614da9565b5090565b90565b614e0091905b80821115614dfc576000808201600090556001820160006101000a81549060ff021916905550600201614dce565b5090565b9056fe4d696e696d756e20676f616c206973206e6f7420726561636865642c206d696e696d756e20676f616c2069732031303030207765692f686f6d652f706b726f2f4b696e67736c616e642f70726f6a656374732f646170702f636f6e7472616374732f506f73744d617070696e672e736f6c2f686f6d652f706b726f2f4b696e67736c616e642f70726f6a656374732f646170702f636f6e7472616374732f44506f737469742e736f6c2f686f6d652f706b726f2f4b696e67736c616e642f70726f6a656374732f646170702f636f6e7472616374732f5574696c732e736f6ca165627a7a7230582069e34cc4ed3203a89d243f3b59259a2bde2a93979ef702c2d6f7086896a2c3e600292f686f6d652f706b726f2f4b696e67736c616e642f70726f6a656374732f646170702f636f6e7472616374732f44506f737469742e736f6c",
  "source": "pragma solidity ^0.5.8;\n\nimport './PostMapping.sol';\nimport './Utils.sol';\n\n\ncontract DPostit {event __CoverageDPostit(string fileName, uint256 lineNumber);\nevent __FunctionCoverageDPostit(string fileName, uint256 fnId);\nevent __StatementCoverageDPostit(string fileName, uint256 statementId);\nevent __BranchCoverageDPostit(string fileName, uint256 branchId, uint256 locationIdx);\nevent __AssertPreCoverageDPostit(string fileName, uint256 branchId);\nevent __AssertPostCoverageDPostit(string fileName, uint256 branchId);\n\n    constructor() public {emit __FunctionCoverageDPostit('/home/pkro/Kingsland/projects/dapp/contracts/DPostit.sol',1);\n\nemit __CoverageDPostit('/home/pkro/Kingsland/projects/dapp/contracts/DPostit.sol',9);\n        emit __StatementCoverageDPostit('/home/pkro/Kingsland/projects/dapp/contracts/DPostit.sol',1);\ncontractOwner = msg.sender;\n    }\n\n    address private contractOwner;\n    uint private minGoal = 1000 wei;\n    mapping(address => uint[]) ownerPosts;\n\n    PostMapping.Post post;\n    modifier isContractOwner() {emit __FunctionCoverageDPostit('/home/pkro/Kingsland/projects/dapp/contracts/DPostit.sol',2);\n\nemit __CoverageDPostit('/home/pkro/Kingsland/projects/dapp/contracts/DPostit.sol',18);\n        emit __AssertPreCoverageDPostit('/home/pkro/Kingsland/projects/dapp/contracts/DPostit.sol',1);\nemit __StatementCoverageDPostit('/home/pkro/Kingsland/projects/dapp/contracts/DPostit.sol',2);\nrequire(msg.sender == contractOwner, \"You are not able to delete post.\");emit __AssertPostCoverageDPostit('/home/pkro/Kingsland/projects/dapp/contracts/DPostit.sol',1);\n\nemit __CoverageDPostit('/home/pkro/Kingsland/projects/dapp/contracts/DPostit.sol',19);\n        _;\n    }\n\n    modifier required(\n            string memory name,\n            string memory description,\n            string memory url\n        ) {emit __FunctionCoverageDPostit('/home/pkro/Kingsland/projects/dapp/contracts/DPostit.sol',3);\n\nemit __CoverageDPostit('/home/pkro/Kingsland/projects/dapp/contracts/DPostit.sol',27);\n            emit __AssertPreCoverageDPostit('/home/pkro/Kingsland/projects/dapp/contracts/DPostit.sol',2);\nemit __StatementCoverageDPostit('/home/pkro/Kingsland/projects/dapp/contracts/DPostit.sol',3);\nrequire(bytes(name).length > 0, \"Name field is required\");emit __AssertPostCoverageDPostit('/home/pkro/Kingsland/projects/dapp/contracts/DPostit.sol',2);\n\nemit __CoverageDPostit('/home/pkro/Kingsland/projects/dapp/contracts/DPostit.sol',28);\n            emit __AssertPreCoverageDPostit('/home/pkro/Kingsland/projects/dapp/contracts/DPostit.sol',3);\nemit __StatementCoverageDPostit('/home/pkro/Kingsland/projects/dapp/contracts/DPostit.sol',4);\nrequire(bytes(description).length > 0, \"Description field is required\");emit __AssertPostCoverageDPostit('/home/pkro/Kingsland/projects/dapp/contracts/DPostit.sol',3);\n\nemit __CoverageDPostit('/home/pkro/Kingsland/projects/dapp/contracts/DPostit.sol',29);\n            emit __AssertPreCoverageDPostit('/home/pkro/Kingsland/projects/dapp/contracts/DPostit.sol',4);\nemit __StatementCoverageDPostit('/home/pkro/Kingsland/projects/dapp/contracts/DPostit.sol',5);\nrequire(bytes(url).length > 0, \"Url field is required\");emit __AssertPostCoverageDPostit('/home/pkro/Kingsland/projects/dapp/contracts/DPostit.sol',4);\n\nemit __CoverageDPostit('/home/pkro/Kingsland/projects/dapp/contracts/DPostit.sol',30);\n            _;\n        }\n\n    modifier exists(\n        uint postIndex\n    ) {emit __FunctionCoverageDPostit('/home/pkro/Kingsland/projects/dapp/contracts/DPostit.sol',4);\n\nemit __CoverageDPostit('/home/pkro/Kingsland/projects/dapp/contracts/DPostit.sol',36);\n        emit __AssertPreCoverageDPostit('/home/pkro/Kingsland/projects/dapp/contracts/DPostit.sol',5);\nemit __StatementCoverageDPostit('/home/pkro/Kingsland/projects/dapp/contracts/DPostit.sol',6);\nrequire(PostMapping.contains(post, postIndex) == true, \"Post does not exist\");emit __AssertPostCoverageDPostit('/home/pkro/Kingsland/projects/dapp/contracts/DPostit.sol',5);\n\nemit __CoverageDPostit('/home/pkro/Kingsland/projects/dapp/contracts/DPostit.sol',37);\n        _;\n    }\n\n    modifier reachMinimumGoal() {emit __FunctionCoverageDPostit('/home/pkro/Kingsland/projects/dapp/contracts/DPostit.sol',5);\n\nemit __CoverageDPostit('/home/pkro/Kingsland/projects/dapp/contracts/DPostit.sol',41);\n        emit __AssertPreCoverageDPostit('/home/pkro/Kingsland/projects/dapp/contracts/DPostit.sol',6);\nemit __StatementCoverageDPostit('/home/pkro/Kingsland/projects/dapp/contracts/DPostit.sol',7);\nrequire(msg.value >= minGoal, \"Minimun goal is not reached, minimun goal is 1000 wei\");emit __AssertPostCoverageDPostit('/home/pkro/Kingsland/projects/dapp/contracts/DPostit.sol',6);\n\nemit __CoverageDPostit('/home/pkro/Kingsland/projects/dapp/contracts/DPostit.sol',42);\n        _;\n    }\n\n    function listPosts() public      returns(string memory data) {emit __FunctionCoverageDPostit('/home/pkro/Kingsland/projects/dapp/contracts/DPostit.sol',6);\n\nemit __CoverageDPostit('/home/pkro/Kingsland/projects/dapp/contracts/DPostit.sol',46);\n        emit __StatementCoverageDPostit('/home/pkro/Kingsland/projects/dapp/contracts/DPostit.sol',8);\ndata = '[';\nemit __CoverageDPostit('/home/pkro/Kingsland/projects/dapp/contracts/DPostit.sol',47);\n        emit __StatementCoverageDPostit('/home/pkro/Kingsland/projects/dapp/contracts/DPostit.sol',9);\nfor(uint i = PostMapping.iterate_start(post);\n        PostMapping.iterate_valid(post, i);\n        i = PostMapping.iterate_next(post, i)) {\nemit __CoverageDPostit('/home/pkro/Kingsland/projects/dapp/contracts/DPostit.sol',50);\n            emit __StatementCoverageDPostit('/home/pkro/Kingsland/projects/dapp/contracts/DPostit.sol',10);\n(\n                uint key,\n                string memory name,\n                string memory description,\n                ,\n            ) = PostMapping.iterate_get(post, i);\n\nemit __CoverageDPostit('/home/pkro/Kingsland/projects/dapp/contracts/DPostit.sol',57);\n            emit __StatementCoverageDPostit('/home/pkro/Kingsland/projects/dapp/contracts/DPostit.sol',11);\ndata = string(\n                abi.encodePacked(\n                    data,\n                    Utils.getPostObject(key, name, description),\n                    (i == post.size) ? '' : ', '\n                )\n            );\n        }\nemit __CoverageDPostit('/home/pkro/Kingsland/projects/dapp/contracts/DPostit.sol',65);\n        emit __StatementCoverageDPostit('/home/pkro/Kingsland/projects/dapp/contracts/DPostit.sol',12);\ndata = string(abi.encodePacked(data, ']'));\n    }\n\n    function savePost(\n        string memory name,\n        string memory description,\n        string memory url\n    ) public required(\n        name,\n        description,\n        url\n    ) returns (uint) {emit __FunctionCoverageDPostit('/home/pkro/Kingsland/projects/dapp/contracts/DPostit.sol',7);\n\n\nemit __CoverageDPostit('/home/pkro/Kingsland/projects/dapp/contracts/DPostit.sol',78);\n        emit __StatementCoverageDPostit('/home/pkro/Kingsland/projects/dapp/contracts/DPostit.sol',13);\nPostMapping.insert(post, name, description, url, msg.sender);\nemit __CoverageDPostit('/home/pkro/Kingsland/projects/dapp/contracts/DPostit.sol',79);\n        emit __StatementCoverageDPostit('/home/pkro/Kingsland/projects/dapp/contracts/DPostit.sol',14);\nreturn post.size;\n    }\n\n    function getPost(\n        uint postIndex\n    ) public      exists(\n        postIndex\n    ) returns (string memory){emit __FunctionCoverageDPostit('/home/pkro/Kingsland/projects/dapp/contracts/DPostit.sol',8);\n\nemit __CoverageDPostit('/home/pkro/Kingsland/projects/dapp/contracts/DPostit.sol',87);\n        emit __StatementCoverageDPostit('/home/pkro/Kingsland/projects/dapp/contracts/DPostit.sol',15);\n(\n            uint key,\n            string memory name,\n            string memory description,\n            ,\n        ) = PostMapping.iterate_get(post, postIndex);\n\nemit __CoverageDPostit('/home/pkro/Kingsland/projects/dapp/contracts/DPostit.sol',94);\n        emit __StatementCoverageDPostit('/home/pkro/Kingsland/projects/dapp/contracts/DPostit.sol',16);\nreturn string(abi.encodePacked('\"', Utils.getPostObject(key, name, description), \"'\"));\n    }\n\n    function payForAccess(uint postIndex) public payable reachMinimumGoal() exists(postIndex) returns (string memory) {emit __FunctionCoverageDPostit('/home/pkro/Kingsland/projects/dapp/contracts/DPostit.sol',9);\n\nemit __CoverageDPostit('/home/pkro/Kingsland/projects/dapp/contracts/DPostit.sol',98);\n        emit __StatementCoverageDPostit('/home/pkro/Kingsland/projects/dapp/contracts/DPostit.sol',17);\n(\n            ,\n            ,\n            ,\n            string memory url,\n            address payable owner\n        ) = PostMapping.iterate_get(post, postIndex);\n\nemit __CoverageDPostit('/home/pkro/Kingsland/projects/dapp/contracts/DPostit.sol',106);\n        emit __AssertPreCoverageDPostit('/home/pkro/Kingsland/projects/dapp/contracts/DPostit.sol',7);\nemit __StatementCoverageDPostit('/home/pkro/Kingsland/projects/dapp/contracts/DPostit.sol',18);\nrequire(owner != msg.sender, \"You can not donate to yourself!\");emit __AssertPostCoverageDPostit('/home/pkro/Kingsland/projects/dapp/contracts/DPostit.sol',7);\n\nemit __CoverageDPostit('/home/pkro/Kingsland/projects/dapp/contracts/DPostit.sol',107);\n        emit __StatementCoverageDPostit('/home/pkro/Kingsland/projects/dapp/contracts/DPostit.sol',19);\nowner.transfer(msg.value);\nemit __CoverageDPostit('/home/pkro/Kingsland/projects/dapp/contracts/DPostit.sol',108);\n        emit __StatementCoverageDPostit('/home/pkro/Kingsland/projects/dapp/contracts/DPostit.sol',20);\nreturn string(abi.encodePacked('{\"url\":', '\"', url, '\"', '\"}'));\n    }\n\n    function deletePost(uint postIndex) public isContractOwner() exists(postIndex) returns(bool){emit __FunctionCoverageDPostit('/home/pkro/Kingsland/projects/dapp/contracts/DPostit.sol',10);\n\nemit __CoverageDPostit('/home/pkro/Kingsland/projects/dapp/contracts/DPostit.sol',112);\n        emit __StatementCoverageDPostit('/home/pkro/Kingsland/projects/dapp/contracts/DPostit.sol',21);\nPostMapping.remove(post, postIndex);\nemit __CoverageDPostit('/home/pkro/Kingsland/projects/dapp/contracts/DPostit.sol',113);\n        emit __StatementCoverageDPostit('/home/pkro/Kingsland/projects/dapp/contracts/DPostit.sol',22);\nreturn true;\n    }\n}",
  "sourcePath": "/home/pkro/Kingsland/projects/dapp/coverageEnv/contracts/DPostit.sol",
  "compiler": {
    "name": "solc",
    "version": "0.5.8+commit.23d335f2.Emscripten.clang"
  },
  "schemaVersion": "3.0.11",
  "updatedAt": "2019-12-04T22:55:26.139Z",
  "devdoc": {
    "methods": {}
  },
  "userdoc": {
    "methods": {}
  }
}