{
  "contractName": "DPostit",
  "abi": [
    {
      "inputs": [],
      "payable": false,
      "stateMutability": "nonpayable",
      "type": "constructor"
    },
    {
      "anonymous": false,
      "inputs": [
        {
          "indexed": false,
          "name": "fileName",
          "type": "string"
        },
        {
          "indexed": false,
          "name": "lineNumber",
          "type": "uint256"
        }
      ],
      "name": "__CoverageDPostit",
      "type": "event"
    },
    {
      "anonymous": false,
      "inputs": [
        {
          "indexed": false,
          "name": "fileName",
          "type": "string"
        },
        {
          "indexed": false,
          "name": "fnId",
          "type": "uint256"
        }
      ],
      "name": "__FunctionCoverageDPostit",
      "type": "event"
    },
    {
      "anonymous": false,
      "inputs": [
        {
          "indexed": false,
          "name": "fileName",
          "type": "string"
        },
        {
          "indexed": false,
          "name": "statementId",
          "type": "uint256"
        }
      ],
      "name": "__StatementCoverageDPostit",
      "type": "event"
    },
    {
      "anonymous": false,
      "inputs": [
        {
          "indexed": false,
          "name": "fileName",
          "type": "string"
        },
        {
          "indexed": false,
          "name": "branchId",
          "type": "uint256"
        },
        {
          "indexed": false,
          "name": "locationIdx",
          "type": "uint256"
        }
      ],
      "name": "__BranchCoverageDPostit",
      "type": "event"
    },
    {
      "anonymous": false,
      "inputs": [
        {
          "indexed": false,
          "name": "fileName",
          "type": "string"
        },
        {
          "indexed": false,
          "name": "branchId",
          "type": "uint256"
        }
      ],
      "name": "__AssertPreCoverageDPostit",
      "type": "event"
    },
    {
      "anonymous": false,
      "inputs": [
        {
          "indexed": false,
          "name": "fileName",
          "type": "string"
        },
        {
          "indexed": false,
          "name": "branchId",
          "type": "uint256"
        }
      ],
      "name": "__AssertPostCoverageDPostit",
      "type": "event"
    },
    {
      "anonymous": false,
      "inputs": [
        {
          "indexed": false,
          "name": "",
          "type": "string"
        }
      ],
      "name": "ReturnPostFileUrl",
      "type": "event"
    },
    {
      "constant": false,
      "inputs": [],
      "name": "listPosts",
      "outputs": [
        {
          "name": "data",
          "type": "string"
        }
      ],
      "payable": false,
      "stateMutability": "nonpayable",
      "type": "function"
    },
    {
      "constant": false,
      "inputs": [
        {
          "name": "name",
          "type": "string"
        },
        {
          "name": "description",
          "type": "string"
        },
        {
          "name": "url",
          "type": "string"
        }
      ],
      "name": "savePost",
      "outputs": [
        {
          "name": "",
          "type": "uint256"
        }
      ],
      "payable": false,
      "stateMutability": "nonpayable",
      "type": "function"
    },
    {
      "constant": false,
      "inputs": [
        {
          "name": "postIndex",
          "type": "uint256"
        }
      ],
      "name": "getPost",
      "outputs": [
        {
          "name": "",
          "type": "string"
        }
      ],
      "payable": false,
      "stateMutability": "nonpayable",
      "type": "function"
    },
    {
      "constant": false,
      "inputs": [
        {
          "name": "postIndex",
          "type": "uint256"
        }
      ],
      "name": "payForAccess",
      "outputs": [
        {
          "name": "",
          "type": "bool"
        }
      ],
      "payable": true,
      "stateMutability": "payable",
      "type": "function"
    },
    {
      "constant": false,
      "inputs": [
        {
          "name": "postIndex",
          "type": "uint256"
        }
      ],
      "name": "deletePost",
      "outputs": [
        {
          "name": "",
          "type": "bool"
        }
      ],
      "payable": false,
      "stateMutability": "nonpayable",
      "type": "function"
    }
  ],
  "bytecode": "0x60806040526103e86001553480156200001757600080fd5b507f1bacaea17518160ca92d0dabbebf84e06d26e80416e6c5ca6b1d3468817c074a600160405180806020018381526020018281038252603881526020018062005886603891396040019250505060405180910390a17f2203ed3156553827f25097b9bac1eb7f1e1081c2c67c39325235ae54e3eacfd0600960405180806020018381526020018281038252603881526020018062005886603891396040019250505060405180910390a17f06c06e22df4cf1050b9c79841f0acbb55f6defa5d17e32c5b7faaaad359966ee600160405180806020018381526020018281038252603881526020018062005886603891396040019250505060405180910390a1336000806101000a81548173ffffffffffffffffffffffffffffffffffffffff021916908373ffffffffffffffffffffffffffffffffffffffff16021790555061571f80620001676000396000f3fe60806040526004361061004a5760003560e01c8063094cd5ee1461004f578063256dd92e146100a257806340731c24146101325780637ee72898146101e6578063e10878e21461022c575b600080fd5b34801561005b57600080fd5b506100886004803603602081101561007257600080fd5b8101908080359060200190929190505050610436565b604051808215151515815260200191505060405180910390f35b3480156100ae57600080fd5b506100b7610b28565b6040518080602001828103825283818151815260200191508051906020019080838360005b838110156100f75780820151818401526020810190506100dc565b50505050905090810190601f1680156101245780820380516001836020036101000a031916815260200191505b509250505060405180910390f35b34801561013e57600080fd5b5061016b6004803603602081101561015557600080fd5b81019080803590602001909291905050506112bc565b6040518080602001828103825283818151815260200191508051906020019080838360005b838110156101ab578082015181840152602081019050610190565b50505050905090810190601f1680156101d85780820380516001836020036101000a031916815260200191505b509250505060405180910390f35b610212600480360360208110156101fc57600080fd5b81019080803590602001909291905050506118dc565b604051808215151515815260200191505060405180910390f35b34801561023857600080fd5b506104206004803603606081101561024f57600080fd5b810190808035906020019064010000000081111561026c57600080fd5b82018360208201111561027e57600080fd5b803590602001918460018302840111640100000000831117156102a057600080fd5b91908080601f016020809104026020016040519081016040528093929190818152602001838380828437600081840152601f19601f8201169050808301925050505050505091929192908035906020019064010000000081111561030357600080fd5b82018360208201111561031557600080fd5b8035906020019184600183028401116401000000008311171561033757600080fd5b91908080601f016020809104026020016040519081016040528093929190818152602001838380828437600081840152601f19601f8201169050808301925050505050505091929192908035906020019064010000000081111561039a57600080fd5b8201836020820111156103ac57600080fd5b803590602001918460018302840111640100000000831117156103ce57600080fd5b91908080601f016020809104026020016040519081016040528093929190818152602001838380828437600081840152601f19601f82011690508083019250505050505050919291929050505061288a565b6040518082815260200191505060405180910390f35b60007f1bacaea17518160ca92d0dabbebf84e06d26e80416e6c5ca6b1d3468817c074a6002604051808060200183815260200182810382526038815260200180615686603891396040019250505060405180910390a17f2203ed3156553827f25097b9bac1eb7f1e1081c2c67c39325235ae54e3eacfd06014604051808060200183815260200182810382526038815260200180615686603891396040019250505060405180910390a17f508fe579a8e555fb3e366cd5c570961805520bfd49efefec18c9c2e99f3f32d76001604051808060200183815260200182810382526038815260200180615686603891396040019250505060405180910390a17f06c06e22df4cf1050b9c79841f0acbb55f6defa5d17e32c5b7faaaad359966ee6002604051808060200183815260200182810382526038815260200180615686603891396040019250505060405180910390a16000809054906101000a900473ffffffffffffffffffffffffffffffffffffffff1673ffffffffffffffffffffffffffffffffffffffff163373ffffffffffffffffffffffffffffffffffffffff161461064a576040517f08c379a00000000000000000000000000000000000000000000000000000000081526004018080602001828103825260208152602001807f596f7520617265206e6f742061626c6520746f2064656c65746520706f73742e81525060200191505060405180910390fd5b7fff809b6dc755115126121372ef5d5c5c4a4f5c4dcafb5b40d1019d3924f79b016001604051808060200183815260200182810382526038815260200180615686603891396040019250505060405180910390a17f2203ed3156553827f25097b9bac1eb7f1e1081c2c67c39325235ae54e3eacfd06015604051808060200183815260200182810382526038815260200180615686603891396040019250505060405180910390a1817f1bacaea17518160ca92d0dabbebf84e06d26e80416e6c5ca6b1d3468817c074a6004604051808060200183815260200182810382526038815260200180615686603891396040019250505060405180910390a17f2203ed3156553827f25097b9bac1eb7f1e1081c2c67c39325235ae54e3eacfd06026604051808060200183815260200182810382526038815260200180615686603891396040019250505060405180910390a17f508fe579a8e555fb3e366cd5c570961805520bfd49efefec18c9c2e99f3f32d76005604051808060200183815260200182810382526038815260200180615686603891396040019250505060405180910390a17f06c06e22df4cf1050b9c79841f0acbb55f6defa5d17e32c5b7faaaad359966ee6006604051808060200183815260200182810382526038815260200180615686603891396040019250505060405180910390a160011515610852600383613051565b1515146108c7576040517f08c379a00000000000000000000000000000000000000000000000000000000081526004018080602001828103825260138152602001807f506f737420646f6573206e6f742065786973740000000000000000000000000081525060200191505060405180910390fd5b7fff809b6dc755115126121372ef5d5c5c4a4f5c4dcafb5b40d1019d3924f79b016005604051808060200183815260200182810382526038815260200180615686603891396040019250505060405180910390a17f2203ed3156553827f25097b9bac1eb7f1e1081c2c67c39325235ae54e3eacfd06027604051808060200183815260200182810382526038815260200180615686603891396040019250505060405180910390a17f1bacaea17518160ca92d0dabbebf84e06d26e80416e6c5ca6b1d3468817c074a600a604051808060200183815260200182810382526038815260200180615686603891396040019250505060405180910390a17f2203ed3156553827f25097b9bac1eb7f1e1081c2c67c39325235ae54e3eacfd06086604051808060200183815260200182810382526038815260200180615686603891396040019250505060405180910390a17f06c06e22df4cf1050b9c79841f0acbb55f6defa5d17e32c5b7faaaad359966ee601a604051808060200183815260200182810382526038815260200180615686603891396040019250505060405180910390a1610a76600384613173565b7f2203ed3156553827f25097b9bac1eb7f1e1081c2c67c39325235ae54e3eacfd06087604051808060200183815260200182810382526038815260200180615686603891396040019250505060405180910390a17f06c06e22df4cf1050b9c79841f0acbb55f6defa5d17e32c5b7faaaad359966ee601b604051808060200183815260200182810382526038815260200180615686603891396040019250505060405180910390a16001915050919050565b60607f1bacaea17518160ca92d0dabbebf84e06d26e80416e6c5ca6b1d3468817c074a6006604051808060200183815260200182810382526038815260200180615686603891396040019250505060405180910390a17f2203ed3156553827f25097b9bac1eb7f1e1081c2c67c39325235ae54e3eacfd06030604051808060200183815260200182810382526038815260200180615686603891396040019250505060405180910390a17f06c06e22df4cf1050b9c79841f0acbb55f6defa5d17e32c5b7faaaad359966ee6008604051808060200183815260200182810382526038815260200180615686603891396040019250505060405180910390a16040518060400160405280600181526020017f5b0000000000000000000000000000000000000000000000000000000000000081525090507f2203ed3156553827f25097b9bac1eb7f1e1081c2c67c39325235ae54e3eacfd06031604051808060200183815260200182810382526038815260200180615686603891396040019250505060405180910390a17f06c06e22df4cf1050b9c79841f0acbb55f6defa5d17e32c5b7faaaad359966ee6009604051808060200183815260200182810382526038815260200180615686603891396040019250505060405180910390a16000610d12600361338f565b90505b610d2060038261349f565b1561117b577f2203ed3156553827f25097b9bac1eb7f1e1081c2c67c39325235ae54e3eacfd06034604051808060200183815260200182810382526038815260200180615686603891396040019250505060405180910390a17f06c06e22df4cf1050b9c79841f0acbb55f6defa5d17e32c5b7faaaad359966ee600a604051808060200183815260200182810382526038815260200180615686603891396040019250505060405180910390a1600060608060606000610de16003876135af565b945094509450945094507f2203ed3156553827f25097b9bac1eb7f1e1081c2c67c39325235ae54e3eacfd0603c604051808060200183815260200182810382526038815260200180615686603891396040019250505060405180910390a17f06c06e22df4cf1050b9c79841f0acbb55f6defa5d17e32c5b7faaaad359966ee600b604051808060200183815260200182810382526038815260200180615686603891396040019250505060405180910390a160008173ffffffffffffffffffffffffffffffffffffffff163373ffffffffffffffffffffffffffffffffffffffff161480610f295750600260003373ffffffffffffffffffffffffffffffffffffffff1673ffffffffffffffffffffffffffffffffffffffff168152602001908152602001600020600088815260200190815260200160002060009054906101000a900460ff165b90507f2203ed3156553827f25097b9bac1eb7f1e1081c2c67c39325235ae54e3eacfd0603d604051808060200183815260200182810382526038815260200180615686603891396040019250505060405180910390a17f06c06e22df4cf1050b9c79841f0acbb55f6defa5d17e32c5b7faaaad359966ee600c604051808060200183815260200182810382526038815260200180615686603891396040019250505060405180910390a187610ffb87878785610ff45760405180602001604052806000815250610ff6565b875b613bd5565b6003600201548914611042576040518060400160405280600281526020017f2c20000000000000000000000000000000000000000000000000000000000000815250611053565b604051806020016040528060008152505b6040516020018084805190602001908083835b602083106110895780518252602082019150602081019050602083039250611066565b6001836020036101000a03801982511681845116808217855250505050505090500183805190602001908083835b602083106110da57805182526020820191506020810190506020830392506110b7565b6001836020036101000a03801982511681845116808217855250505050505090500182805190602001908083835b6020831061112b5780518252602082019150602081019050602083039250611108565b6001836020036101000a03801982511681845116808217855250505050505090500193505050506040516020818303038152906040529750505050505050611174600382614051565b9050610d15565b507f2203ed3156553827f25097b9bac1eb7f1e1081c2c67c39325235ae54e3eacfd06045604051808060200183815260200182810382526038815260200180615686603891396040019250505060405180910390a17f06c06e22df4cf1050b9c79841f0acbb55f6defa5d17e32c5b7faaaad359966ee600d604051808060200183815260200182810382526038815260200180615686603891396040019250505060405180910390a1806040516020018082805190602001908083835b6020831061125b5780518252602082019150602081019050602083039250611238565b6001836020036101000a038019825116818451168082178552505050505050905001807f5d00000000000000000000000000000000000000000000000000000000000000815250600101915050604051602081830303815290604052905090565b6060817f1bacaea17518160ca92d0dabbebf84e06d26e80416e6c5ca6b1d3468817c074a6004604051808060200183815260200182810382526038815260200180615686603891396040019250505060405180910390a17f2203ed3156553827f25097b9bac1eb7f1e1081c2c67c39325235ae54e3eacfd06026604051808060200183815260200182810382526038815260200180615686603891396040019250505060405180910390a17f508fe579a8e555fb3e366cd5c570961805520bfd49efefec18c9c2e99f3f32d76005604051808060200183815260200182810382526038815260200180615686603891396040019250505060405180910390a17f06c06e22df4cf1050b9c79841f0acbb55f6defa5d17e32c5b7faaaad359966ee6006604051808060200183815260200182810382526038815260200180615686603891396040019250505060405180910390a16001151561141e600383613051565b151514611493576040517f08c379a00000000000000000000000000000000000000000000000000000000081526004018080602001828103825260138152602001807f506f737420646f6573206e6f742065786973740000000000000000000000000081525060200191505060405180910390fd5b7fff809b6dc755115126121372ef5d5c5c4a4f5c4dcafb5b40d1019d3924f79b016005604051808060200183815260200182810382526038815260200180615686603891396040019250505060405180910390a17f2203ed3156553827f25097b9bac1eb7f1e1081c2c67c39325235ae54e3eacfd06027604051808060200183815260200182810382526038815260200180615686603891396040019250505060405180910390a17f1bacaea17518160ca92d0dabbebf84e06d26e80416e6c5ca6b1d3468817c074a6008604051808060200183815260200182810382526038815260200180615686603891396040019250505060405180910390a17f2203ed3156553827f25097b9bac1eb7f1e1081c2c67c39325235ae54e3eacfd0605b604051808060200183815260200182810382526038815260200180615686603891396040019250505060405180910390a17f06c06e22df4cf1050b9c79841f0acbb55f6defa5d17e32c5b7faaaad359966ee6010604051808060200183815260200182810382526038815260200180615686603891396040019250505060405180910390a160006060806060600061164b6003896135af565b945094509450945094507f2203ed3156553827f25097b9bac1eb7f1e1081c2c67c39325235ae54e3eacfd06063604051808060200183815260200182810382526038815260200180615686603891396040019250505060405180910390a17f06c06e22df4cf1050b9c79841f0acbb55f6defa5d17e32c5b7faaaad359966ee6011604051808060200183815260200182810382526038815260200180615686603891396040019250505060405180910390a160008173ffffffffffffffffffffffffffffffffffffffff163373ffffffffffffffffffffffffffffffffffffffff1614806117935750600260003373ffffffffffffffffffffffffffffffffffffffff1673ffffffffffffffffffffffffffffffffffffffff16815260200190815260200160002060008a815260200190815260200160002060009054906101000a900460ff165b90507f2203ed3156553827f25097b9bac1eb7f1e1081c2c67c39325235ae54e3eacfd06064604051808060200183815260200182810382526038815260200180615686603891396040019250505060405180910390a17f06c06e22df4cf1050b9c79841f0acbb55f6defa5d17e32c5b7faaaad359966ee6012604051808060200183815260200182810382526038815260200180615686603891396040019250505060405180910390a16118648686868461185d576040518060200160405280600081525061185f565b865b613bd5565b6040516020018082805190602001908083835b6020831061189a5780518252602082019150602081019050602083039250611877565b6001836020036101000a038019825116818451168082178552505050505050905001915050604051602081830303815290604052975050505050505050919050565b60007f1bacaea17518160ca92d0dabbebf84e06d26e80416e6c5ca6b1d3468817c074a6005604051808060200183815260200182810382526038815260200180615686603891396040019250505060405180910390a17f2203ed3156553827f25097b9bac1eb7f1e1081c2c67c39325235ae54e3eacfd0602b604051808060200183815260200182810382526038815260200180615686603891396040019250505060405180910390a17f508fe579a8e555fb3e366cd5c570961805520bfd49efefec18c9c2e99f3f32d76006604051808060200183815260200182810382526038815260200180615686603891396040019250505060405180910390a17f06c06e22df4cf1050b9c79841f0acbb55f6defa5d17e32c5b7faaaad359966ee6007604051808060200183815260200182810382526038815260200180615686603891396040019250505060405180910390a1600154341015611a89576040517f08c379a00000000000000000000000000000000000000000000000000000000081526004018080602001828103825260358152602001806156156035913960400191505060405180910390fd5b7fff809b6dc755115126121372ef5d5c5c4a4f5c4dcafb5b40d1019d3924f79b016006604051808060200183815260200182810382526038815260200180615686603891396040019250505060405180910390a17f2203ed3156553827f25097b9bac1eb7f1e1081c2c67c39325235ae54e3eacfd0602c604051808060200183815260200182810382526038815260200180615686603891396040019250505060405180910390a1817f1bacaea17518160ca92d0dabbebf84e06d26e80416e6c5ca6b1d3468817c074a6004604051808060200183815260200182810382526038815260200180615686603891396040019250505060405180910390a17f2203ed3156553827f25097b9bac1eb7f1e1081c2c67c39325235ae54e3eacfd06026604051808060200183815260200182810382526038815260200180615686603891396040019250505060405180910390a17f508fe579a8e555fb3e366cd5c570961805520bfd49efefec18c9c2e99f3f32d76005604051808060200183815260200182810382526038815260200180615686603891396040019250505060405180910390a17f06c06e22df4cf1050b9c79841f0acbb55f6defa5d17e32c5b7faaaad359966ee6006604051808060200183815260200182810382526038815260200180615686603891396040019250505060405180910390a160011515611c91600383613051565b151514611d06576040517f08c379a00000000000000000000000000000000000000000000000000000000081526004018080602001828103825260138152602001807f506f737420646f6573206e6f742065786973740000000000000000000000000081525060200191505060405180910390fd5b7fff809b6dc755115126121372ef5d5c5c4a4f5c4dcafb5b40d1019d3924f79b016005604051808060200183815260200182810382526038815260200180615686603891396040019250505060405180910390a17f2203ed3156553827f25097b9bac1eb7f1e1081c2c67c39325235ae54e3eacfd06027604051808060200183815260200182810382526038815260200180615686603891396040019250505060405180910390a17f1bacaea17518160ca92d0dabbebf84e06d26e80416e6c5ca6b1d3468817c074a6009604051808060200183815260200182810382526038815260200180615686603891396040019250505060405180910390a17f2203ed3156553827f25097b9bac1eb7f1e1081c2c67c39325235ae54e3eacfd06071604051808060200183815260200182810382526038815260200180615686603891396040019250505060405180910390a17f06c06e22df4cf1050b9c79841f0acbb55f6defa5d17e32c5b7faaaad359966ee6013604051808060200183815260200182810382526038815260200180615686603891396040019250505060405180910390a1600060606000611ebb6003876135af565b94509450505092507f2203ed3156553827f25097b9bac1eb7f1e1081c2c67c39325235ae54e3eacfd06079604051808060200183815260200182810382526038815260200180615686603891396040019250505060405180910390a17f508fe579a8e555fb3e366cd5c570961805520bfd49efefec18c9c2e99f3f32d76007604051808060200183815260200182810382526038815260200180615686603891396040019250505060405180910390a17f06c06e22df4cf1050b9c79841f0acbb55f6defa5d17e32c5b7faaaad359966ee6014604051808060200183815260200182810382526038815260200180615686603891396040019250505060405180910390a13373ffffffffffffffffffffffffffffffffffffffff168173ffffffffffffffffffffffffffffffffffffffff161415612061576040517f08c379a000000000000000000000000000000000000000000000000000000000815260040180806020018281038252601f8152602001807f596f752063616e206e6f7420646f6e61746520746f20796f757273656c66210081525060200191505060405180910390fd5b7fff809b6dc755115126121372ef5d5c5c4a4f5c4dcafb5b40d1019d3924f79b016007604051808060200183815260200182810382526038815260200180615686603891396040019250505060405180910390a17f2203ed3156553827f25097b9bac1eb7f1e1081c2c67c39325235ae54e3eacfd0607b604051808060200183815260200182810382526038815260200180615686603891396040019250505060405180910390a17f508fe579a8e555fb3e366cd5c570961805520bfd49efefec18c9c2e99f3f32d76008604051808060200183815260200182810382526038815260200180615686603891396040019250505060405180910390a17f06c06e22df4cf1050b9c79841f0acbb55f6defa5d17e32c5b7faaaad359966ee6015604051808060200183815260200182810382526038815260200180615686603891396040019250505060405180910390a160001515600260003373ffffffffffffffffffffffffffffffffffffffff1673ffffffffffffffffffffffffffffffffffffffff168152602001908152602001600020600085815260200190815260200160002060009054906101000a900460ff16151514612288576040517f08c379a000000000000000000000000000000000000000000000000000000000815260040180806020018281038252601e8152602001807f596f7520616c7265616479207061696420666f7220746869732066696c65000081525060200191505060405180910390fd5b7fff809b6dc755115126121372ef5d5c5c4a4f5c4dcafb5b40d1019d3924f79b016008604051808060200183815260200182810382526038815260200180615686603891396040019250505060405180910390a17f2203ed3156553827f25097b9bac1eb7f1e1081c2c67c39325235ae54e3eacfd0607d604051808060200183815260200182810382526038815260200180615686603891396040019250505060405180910390a17f06c06e22df4cf1050b9c79841f0acbb55f6defa5d17e32c5b7faaaad359966ee6016604051808060200183815260200182810382526038815260200180615686603891396040019250505060405180910390a16001600260003373ffffffffffffffffffffffffffffffffffffffff1673ffffffffffffffffffffffffffffffffffffffff168152602001908152602001600020600085815260200190815260200160002060006101000a81548160ff0219169083151502179055507f2203ed3156553827f25097b9bac1eb7f1e1081c2c67c39325235ae54e3eacfd0607f604051808060200183815260200182810382526038815260200180615686603891396040019250505060405180910390a17f06c06e22df4cf1050b9c79841f0acbb55f6defa5d17e32c5b7faaaad359966ee6017604051808060200183815260200182810382526038815260200180615686603891396040019250505060405180910390a18073ffffffffffffffffffffffffffffffffffffffff166108fc349081150290604051600060405180830381858888f193505050501580156124db573d6000803e3d6000fd5b507f2203ed3156553827f25097b9bac1eb7f1e1081c2c67c39325235ae54e3eacfd06081604051808060200183815260200182810382526038815260200180615686603891396040019250505060405180910390a17f06c06e22df4cf1050b9c79841f0acbb55f6defa5d17e32c5b7faaaad359966ee6018604051808060200183815260200182810382526038815260200180615686603891396040019250505060405180910390a17ffb74e9b4b337dd42b58e7998531f35706537766d4179ea3228d136834678e8a0826125af85614358565b60405160200180807f7b2275726c223a00000000000000000000000000000000000000000000000000815250600701807f220000000000000000000000000000000000000000000000000000000000000081525060010183805190602001908083835b602083106126355780518252602082019150602081019050602083039250612612565b6001836020036101000a038019825116818451168082178552505050505050905001807f222c000000000000000000000000000000000000000000000000000000000000815250600201807f226b657922203a20000000000000000000000000000000000000000000000000815250600801807f220000000000000000000000000000000000000000000000000000000000000081525060010182805190602001908083835b602083106126fe57805182526020820191506020810190506020830392506126db565b6001836020036101000a038019825116818451168082178552505050505050905001807f227d000000000000000000000000000000000000000000000000000000000000815250600201925050506040516020818303038152906040526040518080602001828103825283818151815260200191508051906020019080838360005b8381101561279b578082015181840152602081019050612780565b50505050905090810190601f1680156127c85780820380516001836020036101000a031916815260200191505b509250505060405180910390a17f2203ed3156553827f25097b9bac1eb7f1e1081c2c67c39325235ae54e3eacfd06082604051808060200183815260200182810382526038815260200180615686603891396040019250505060405180910390a17f06c06e22df4cf1050b9c79841f0acbb55f6defa5d17e32c5b7faaaad359966ee6019604051808060200183815260200182810382526038815260200180615686603891396040019250505060405180910390a16001945050505050919050565b60008383837f1bacaea17518160ca92d0dabbebf84e06d26e80416e6c5ca6b1d3468817c074a6003604051808060200183815260200182810382526038815260200180615686603891396040019250505060405180910390a17f2203ed3156553827f25097b9bac1eb7f1e1081c2c67c39325235ae54e3eacfd0601d604051808060200183815260200182810382526038815260200180615686603891396040019250505060405180910390a17f508fe579a8e555fb3e366cd5c570961805520bfd49efefec18c9c2e99f3f32d76002604051808060200183815260200182810382526038815260200180615686603891396040019250505060405180910390a17f06c06e22df4cf1050b9c79841f0acbb55f6defa5d17e32c5b7faaaad359966ee6003604051808060200183815260200182810382526038815260200180615686603891396040019250505060405180910390a16000835111612a56576040517f08c379a00000000000000000000000000000000000000000000000000000000081526004018080602001828103825260168152602001807f4e616d65206669656c642069732072657175697265640000000000000000000081525060200191505060405180910390fd5b7fff809b6dc755115126121372ef5d5c5c4a4f5c4dcafb5b40d1019d3924f79b016002604051808060200183815260200182810382526038815260200180615686603891396040019250505060405180910390a17f2203ed3156553827f25097b9bac1eb7f1e1081c2c67c39325235ae54e3eacfd0601e604051808060200183815260200182810382526038815260200180615686603891396040019250505060405180910390a17f508fe579a8e555fb3e366cd5c570961805520bfd49efefec18c9c2e99f3f32d76003604051808060200183815260200182810382526038815260200180615686603891396040019250505060405180910390a17f06c06e22df4cf1050b9c79841f0acbb55f6defa5d17e32c5b7faaaad359966ee6004604051808060200183815260200182810382526038815260200180615686603891396040019250505060405180910390a16000825111612c1d576040517f08c379a000000000000000000000000000000000000000000000000000000000815260040180806020018281038252601d8152602001807f4465736372697074696f6e206669656c6420697320726571756972656400000081525060200191505060405180910390fd5b7fff809b6dc755115126121372ef5d5c5c4a4f5c4dcafb5b40d1019d3924f79b016003604051808060200183815260200182810382526038815260200180615686603891396040019250505060405180910390a17f2203ed3156553827f25097b9bac1eb7f1e1081c2c67c39325235ae54e3eacfd0601f604051808060200183815260200182810382526038815260200180615686603891396040019250505060405180910390a17f508fe579a8e555fb3e366cd5c570961805520bfd49efefec18c9c2e99f3f32d76004604051808060200183815260200182810382526038815260200180615686603891396040019250505060405180910390a17f06c06e22df4cf1050b9c79841f0acbb55f6defa5d17e32c5b7faaaad359966ee6005604051808060200183815260200182810382526038815260200180615686603891396040019250505060405180910390a16000815111612de4576040517f08c379a00000000000000000000000000000000000000000000000000000000081526004018080602001828103825260158152602001807f55726c206669656c64206973207265717569726564000000000000000000000081525060200191505060405180910390fd5b7fff809b6dc755115126121372ef5d5c5c4a4f5c4dcafb5b40d1019d3924f79b016004604051808060200183815260200182810382526038815260200180615686603891396040019250505060405180910390a17f2203ed3156553827f25097b9bac1eb7f1e1081c2c67c39325235ae54e3eacfd06020604051808060200183815260200182810382526038815260200180615686603891396040019250505060405180910390a17f1bacaea17518160ca92d0dabbebf84e06d26e80416e6c5ca6b1d3468817c074a6007604051808060200183815260200182810382526038815260200180615686603891396040019250505060405180910390a17f2203ed3156553827f25097b9bac1eb7f1e1081c2c67c39325235ae54e3eacfd06052604051808060200183815260200182810382526038815260200180615686603891396040019250505060405180910390a17f06c06e22df4cf1050b9c79841f0acbb55f6defa5d17e32c5b7faaaad359966ee600e604051808060200183815260200182810382526038815260200180615686603891396040019250505060405180910390a1612f96600388888833614c21565b507f2203ed3156553827f25097b9bac1eb7f1e1081c2c67c39325235ae54e3eacfd06053604051808060200183815260200182810382526038815260200180615686603891396040019250505060405180910390a17f06c06e22df4cf1050b9c79841f0acbb55f6defa5d17e32c5b7faaaad359966ee600f604051808060200183815260200182810382526038815260200180615686603891396040019250505060405180910390a160036002015493505050509392505050565b60007f6f61fcd05ebf53c8011390fffae9920a16ae018728266fa779378a866489881c600460405180806020018381526020018281038252603c81526020018061564a603c91396040019250505060405180910390a17fd58de87c4595cf9a31408dc5d4f37abcd3c22f90c67353dde4daabcaf331ea24604160405180806020018381526020018281038252603c81526020018061564a603c91396040019250505060405180910390a17f74e1ac8c21a78462b105c880756ea2c03e7b8afd283962c100d2c7b8dfce5cc4600f60405180806020018381526020018281038252603c81526020018061564a603c91396040019250505060405180910390a160008360000160008481526020019081526020016000206000015411905092915050565b7f6f61fcd05ebf53c8011390fffae9920a16ae018728266fa779378a866489881c600360405180806020018381526020018281038252603c81526020018061564a603c91396040019250505060405180910390a17fd58de87c4595cf9a31408dc5d4f37abcd3c22f90c67353dde4daabcaf331ea24603c60405180806020018381526020018281038252603c81526020018061564a603c91396040019250505060405180910390a17f74e1ac8c21a78462b105c880756ea2c03e7b8afd283962c100d2c7b8dfce5cc4600e60405180806020018381526020018281038252603c81526020018061564a603c91396040019250505060405180910390a1600182600101836000016000848152602001908152602001600020600001548154811061329857fe5b906000526020600020906002020160010160006101000a81548160ff0219169083151502179055507fd58de87c4595cf9a31408dc5d4f37abcd3c22f90c67353dde4daabcaf331ea24603d60405180806020018381526020018281038252603c81526020018061564a603c91396040019250505060405180910390a181600001600082815260200190815260200160002060008082016000905560018201600061334291906154ba565b60028201600061335291906154ba565b60038201600061336291906154ba565b6004820160006101000a81549073ffffffffffffffffffffffffffffffffffffffff021916905550505050565b60007f6f61fcd05ebf53c8011390fffae9920a16ae018728266fa779378a866489881c600560405180806020018381526020018281038252603c81526020018061564a603c91396040019250505060405180910390a17fd58de87c4595cf9a31408dc5d4f37abcd3c22f90c67353dde4daabcaf331ea24604560405180806020018381526020018281038252603c81526020018061564a603c91396040019250505060405180910390a17f74e1ac8c21a78462b105c880756ea2c03e7b8afd283962c100d2c7b8dfce5cc4601060405180806020018381526020018281038252603c81526020018061564a603c91396040019250505060405180910390a1613498826000614051565b9050919050565b60007f6f61fcd05ebf53c8011390fffae9920a16ae018728266fa779378a866489881c600660405180806020018381526020018281038252603c81526020018061564a603c91396040019250505060405180910390a17fd58de87c4595cf9a31408dc5d4f37abcd3c22f90c67353dde4daabcaf331ea24604960405180806020018381526020018281038252603c81526020018061564a603c91396040019250505060405180910390a17f74e1ac8c21a78462b105c880756ea2c03e7b8afd283962c100d2c7b8dfce5cc4601160405180806020018381526020018281038252603c81526020018061564a603c91396040019250505060405180910390a182600101805490508210905092915050565b6000606080606060007f6f61fcd05ebf53c8011390fffae9920a16ae018728266fa779378a866489881c600260405180806020018381526020018281038252603c81526020018061564a603c91396040019250505060405180910390a17fd58de87c4595cf9a31408dc5d4f37abcd3c22f90c67353dde4daabcaf331ea24603460405180806020018381526020018281038252603c81526020018061564a603c91396040019250505060405180910390a17f74e1ac8c21a78462b105c880756ea2c03e7b8afd283962c100d2c7b8dfce5cc4600960405180806020018381526020018281038252603c81526020018061564a603c91396040019250505060405180910390a18660010186815481106136c357fe5b90600052602060002090600202016000015494507fd58de87c4595cf9a31408dc5d4f37abcd3c22f90c67353dde4daabcaf331ea24603560405180806020018381526020018281038252603c81526020018061564a603c91396040019250505060405180910390a17f74e1ac8c21a78462b105c880756ea2c03e7b8afd283962c100d2c7b8dfce5cc4600a60405180806020018381526020018281038252603c81526020018061564a603c91396040019250505060405180910390a18660000160008681526020019081526020016000206001018054600181600116156101000203166002900480601f01602080910402602001604051908101604052809291908181526020018280546001816001161561010002031660029004801561382b5780601f106138005761010080835404028352916020019161382b565b820191906000526020600020905b81548152906001019060200180831161380e57829003601f168201915b505050505093507fd58de87c4595cf9a31408dc5d4f37abcd3c22f90c67353dde4daabcaf331ea24603660405180806020018381526020018281038252603c81526020018061564a603c91396040019250505060405180910390a17f74e1ac8c21a78462b105c880756ea2c03e7b8afd283962c100d2c7b8dfce5cc4600b60405180806020018381526020018281038252603c81526020018061564a603c91396040019250505060405180910390a18660000160008681526020019081526020016000206002018054600181600116156101000203166002900480601f0160208091040260200160405190810160405280929190818152602001828054600181600116156101000203166002900480156139865780601f1061395b57610100808354040283529160200191613986565b820191906000526020600020905b81548152906001019060200180831161396957829003601f168201915b505050505092507fd58de87c4595cf9a31408dc5d4f37abcd3c22f90c67353dde4daabcaf331ea24603760405180806020018381526020018281038252603c81526020018061564a603c91396040019250505060405180910390a17f74e1ac8c21a78462b105c880756ea2c03e7b8afd283962c100d2c7b8dfce5cc4600c60405180806020018381526020018281038252603c81526020018061564a603c91396040019250505060405180910390a18660000160008681526020019081526020016000206003018054600181600116156101000203166002900480601f016020809104026020016040519081016040528092919081815260200182805460018160011615610100020316600290048015613ae15780601f10613ab657610100808354040283529160200191613ae1565b820191906000526020600020905b815481529060010190602001808311613ac457829003601f168201915b505050505091507fd58de87c4595cf9a31408dc5d4f37abcd3c22f90c67353dde4daabcaf331ea24603860405180806020018381526020018281038252603c81526020018061564a603c91396040019250505060405180910390a17f74e1ac8c21a78462b105c880756ea2c03e7b8afd283962c100d2c7b8dfce5cc4600d60405180806020018381526020018281038252603c81526020018061564a603c91396040019250505060405180910390a186600001600086815260200190815260200160002060040160009054906101000a900473ffffffffffffffffffffffffffffffffffffffff1690509295509295909350565b60607ff57be11109de9dfb78b34d8fc9989dd024adfa2d8a68d97a53c8121bbcc148b760016040518080602001838152602001828103825260368152602001806156be603691396040019250505060405180910390a17fc06545968d0022a7c6b46333bd53a81e4edc859e88e77ec1151784567625fc95600a6040518080602001838152602001828103825260368152602001806156be603691396040019250505060405180910390a17f18d9e499cf4c2791fc7a57dda53e05bf8866be50aac005a4aec90ca83d084e0560016040518080602001838152602001828103825260368152602001806156be603691396040019250505060405180910390a1613cdc85614358565b84848460405160200180807f7b226b6579223a20000000000000000000000000000000000000000000000000815250600801807f220000000000000000000000000000000000000000000000000000000000000081525060010185805190602001908083835b60208310613d655780518252602082019150602081019050602083039250613d42565b6001836020036101000a038019825116818451168082178552505050505050905001807f2200000000000000000000000000000000000000000000000000000000000000815250600101807f2c20226e616d65223a2000000000000000000000000000000000000000000000815250600a01807f220000000000000000000000000000000000000000000000000000000000000081525060010184805190602001908083835b60208310613e2e5780518252602082019150602081019050602083039250613e0b565b6001836020036101000a038019825116818451168082178552505050505050905001807f2200000000000000000000000000000000000000000000000000000000000000815250600101807f2c20226465736372697074696f6e223a20000000000000000000000000000000815250601101807f220000000000000000000000000000000000000000000000000000000000000081525060010183805190602001908083835b60208310613ef75780518252602082019150602081019050602083039250613ed4565b6001836020036101000a038019825116818451168082178552505050505050905001807f2200000000000000000000000000000000000000000000000000000000000000815250600101807f2c202275726c223a200000000000000000000000000000000000000000000000815250600901807f220000000000000000000000000000000000000000000000000000000000000081525060010182805190602001908083835b60208310613fc05780518252602082019150602081019050602083039250613f9d565b6001836020036101000a038019825116818451168082178552505050505050905001807f2200000000000000000000000000000000000000000000000000000000000000815250600101807f7d000000000000000000000000000000000000000000000000000000000000008152506001019450505050506040516020818303038152906040529050949350505050565b60007f6f61fcd05ebf53c8011390fffae9920a16ae018728266fa779378a866489881c600760405180806020018381526020018281038252603c81526020018061564a603c91396040019250505060405180910390a17fd58de87c4595cf9a31408dc5d4f37abcd3c22f90c67353dde4daabcaf331ea24604d60405180806020018381526020018281038252603c81526020018061564a603c91396040019250505060405180910390a17f74e1ac8c21a78462b105c880756ea2c03e7b8afd283962c100d2c7b8dfce5cc4601260405180806020018381526020018281038252603c81526020018061564a603c91396040019250505060405180910390a160006001830190507fd58de87c4595cf9a31408dc5d4f37abcd3c22f90c67353dde4daabcaf331ea24604e60405180806020018381526020018281038252603c81526020018061564a603c91396040019250505060405180910390a17f74e1ac8c21a78462b105c880756ea2c03e7b8afd283962c100d2c7b8dfce5cc4601360405180806020018381526020018281038252603c81526020018061564a603c91396040019250505060405180910390a15b836001018054905081108015614240575083600101818154811061422057fe5b906000526020600020906002020160010160009054906101000a900460ff165b156142a6577fd58de87c4595cf9a31408dc5d4f37abcd3c22f90c67353dde4daabcaf331ea24604f60405180806020018381526020018281038252603c81526020018061564a603c91396040019250505060405180910390a18080600101915050614200565b7fd58de87c4595cf9a31408dc5d4f37abcd3c22f90c67353dde4daabcaf331ea24605060405180806020018381526020018281038252603c81526020018061564a603c91396040019250505060405180910390a17f74e1ac8c21a78462b105c880756ea2c03e7b8afd283962c100d2c7b8dfce5cc4601460405180806020018381526020018281038252603c81526020018061564a603c91396040019250505060405180910390a18091505092915050565b60607ff57be11109de9dfb78b34d8fc9989dd024adfa2d8a68d97a53c8121bbcc148b760026040518080602001838152602001828103825260368152602001806156be603691396040019250505060405180910390a17fc06545968d0022a7c6b46333bd53a81e4edc859e88e77ec1151784567625fc9560136040518080602001838152602001828103825260368152602001806156be603691396040019250505060405180910390a17f18d9e499cf4c2791fc7a57dda53e05bf8866be50aac005a4aec90ca83d084e0560026040518080602001838152602001828103825260368152602001806156be603691396040019250505060405180910390a160008290507fc06545968d0022a7c6b46333bd53a81e4edc859e88e77ec1151784567625fc9560146040518080602001838152602001828103825260368152602001806156be603691396040019250505060405180910390a17f18d9e499cf4c2791fc7a57dda53e05bf8866be50aac005a4aec90ca83d084e0560036040518080602001838152602001828103825260368152602001806156be603691396040019250505060405180910390a160007fc06545968d0022a7c6b46333bd53a81e4edc859e88e77ec1151784567625fc9560156040518080602001838152602001828103825260368152602001806156be603691396040019250505060405180910390a17f18d9e499cf4c2791fc7a57dda53e05bf8866be50aac005a4aec90ca83d084e0560046040518080602001838152602001828103825260368152602001806156be603691396040019250505060405180910390a15b600082146146cc577fc06545968d0022a7c6b46333bd53a81e4edc859e88e77ec1151784567625fc9560166040518080602001838152602001828103825260368152602001806156be603691396040019250505060405180910390a180806001019150507fc06545968d0022a7c6b46333bd53a81e4edc859e88e77ec1151784567625fc9560176040518080602001838152602001828103825260368152602001806156be603691396040019250505060405180910390a17f18d9e499cf4c2791fc7a57dda53e05bf8866be50aac005a4aec90ca83d084e0560056040518080602001838152602001828103825260368152602001806156be603691396040019250505060405180910390a1600a82816146c457fe5b0491506145ae565b7fc06545968d0022a7c6b46333bd53a81e4edc859e88e77ec1151784567625fc9560196040518080602001838152602001828103825260368152602001806156be603691396040019250505060405180910390a17f18d9e499cf4c2791fc7a57dda53e05bf8866be50aac005a4aec90ca83d084e0560066040518080602001838152602001828103825260368152602001806156be603691396040019250505060405180910390a16060816040519080825280601f01601f1916602001820160405280156147a95781602001600182028038833980820191505090505b5090507fc06545968d0022a7c6b46333bd53a81e4edc859e88e77ec1151784567625fc95601a6040518080602001838152602001828103825260368152602001806156be603691396040019250505060405180910390a17f18d9e499cf4c2791fc7a57dda53e05bf8866be50aac005a4aec90ca83d084e0560076040518080602001838152602001828103825260368152602001806156be603691396040019250505060405180910390a160006001830390507fc06545968d0022a7c6b46333bd53a81e4edc859e88e77ec1151784567625fc95601b6040518080602001838152602001828103825260368152602001806156be603691396040019250505060405180910390a17f18d9e499cf4c2791fc7a57dda53e05bf8866be50aac005a4aec90ca83d084e0560086040518080602001838152602001828103825260368152602001806156be603691396040019250505060405180910390a18593507fc06545968d0022a7c6b46333bd53a81e4edc859e88e77ec1151784567625fc95601d6040518080602001838152602001828103825260368152602001806156be603691396040019250505060405180910390a17f18d9e499cf4c2791fc7a57dda53e05bf8866be50aac005a4aec90ca83d084e0560096040518080602001838152602001828103825260368152602001806156be603691396040019250505060405180910390a15b60008414614b6d577fc06545968d0022a7c6b46333bd53a81e4edc859e88e77ec1151784567625fc95601e6040518080602001838152602001828103825260368152602001806156be603691396040019250505060405180910390a17f18d9e499cf4c2791fc7a57dda53e05bf8866be50aac005a4aec90ca83d084e05600a6040518080602001838152602001828103825260368152602001806156be603691396040019250505060405180910390a1600a8481614a6a57fe5b0660300160f81b82828060019003935081518110614a8457fe5b60200101907effffffffffffffffffffffffffffffffffffffffffffffffffffffffffffff1916908160001a9053507fc06545968d0022a7c6b46333bd53a81e4edc859e88e77ec1151784567625fc95601f6040518080602001838152602001828103825260368152602001806156be603691396040019250505060405180910390a17f18d9e499cf4c2791fc7a57dda53e05bf8866be50aac005a4aec90ca83d084e05600b6040518080602001838152602001828103825260368152602001806156be603691396040019250505060405180910390a1600a8481614b6557fe5b0493506149b0565b7fc06545968d0022a7c6b46333bd53a81e4edc859e88e77ec1151784567625fc9560216040518080602001838152602001828103825260368152602001806156be603691396040019250505060405180910390a17f18d9e499cf4c2791fc7a57dda53e05bf8866be50aac005a4aec90ca83d084e05600c6040518080602001838152602001828103825260368152602001806156be603691396040019250505060405180910390a181945050505050919050565b60007f6f61fcd05ebf53c8011390fffae9920a16ae018728266fa779378a866489881c600160405180806020018381526020018281038252603c81526020018061564a603c91396040019250505060405180910390a17fd58de87c4595cf9a31408dc5d4f37abcd3c22f90c67353dde4daabcaf331ea24601b60405180806020018381526020018281038252603c81526020018061564a603c91396040019250505060405180910390a17f74e1ac8c21a78462b105c880756ea2c03e7b8afd283962c100d2c7b8dfce5cc4600160405180806020018381526020018281038252603c81526020018061564a603c91396040019250505060405180910390a1600086600201541415614da5577f01e84113de27af6db414be599389da74b241f09d4a757d3e35c068fb074c7c0b6001600060405180806020018481526020018381526020018281038252603c81526020018061564a603c9139604001935050505060405180910390a1856001018054809190600101614d9f9190615502565b50614e02565b7f01e84113de27af6db414be599389da74b241f09d4a757d3e35c068fb074c7c0b60018060405180806020018481526020018381526020018281038252603c81526020018061564a603c9139604001935050505060405180910390a15b7fd58de87c4595cf9a31408dc5d4f37abcd3c22f90c67353dde4daabcaf331ea24601d60405180806020018381526020018281038252603c81526020018061564a603c91396040019250505060405180910390a185600201600081548092919060010191905055507fd58de87c4595cf9a31408dc5d4f37abcd3c22f90c67353dde4daabcaf331ea24601e60405180806020018381526020018281038252603c81526020018061564a603c91396040019250505060405180910390a17f74e1ac8c21a78462b105c880756ea2c03e7b8afd283962c100d2c7b8dfce5cc4600260405180806020018381526020018281038252603c81526020018061564a603c91396040019250505060405180910390a184866000016000886002015481526020019081526020016000206001019080519060200190614f42929190615534565b507fd58de87c4595cf9a31408dc5d4f37abcd3c22f90c67353dde4daabcaf331ea24601f60405180806020018381526020018281038252603c81526020018061564a603c91396040019250505060405180910390a17f74e1ac8c21a78462b105c880756ea2c03e7b8afd283962c100d2c7b8dfce5cc4600360405180806020018381526020018281038252603c81526020018061564a603c91396040019250505060405180910390a18386600001600088600201548152602001908152602001600020600201908051906020019061501b929190615534565b507fd58de87c4595cf9a31408dc5d4f37abcd3c22f90c67353dde4daabcaf331ea24602060405180806020018381526020018281038252603c81526020018061564a603c91396040019250505060405180910390a17f74e1ac8c21a78462b105c880756ea2c03e7b8afd283962c100d2c7b8dfce5cc4600460405180806020018381526020018281038252603c81526020018061564a603c91396040019250505060405180910390a1828660000160008860020154815260200190815260200160002060030190805190602001906150f4929190615534565b507fd58de87c4595cf9a31408dc5d4f37abcd3c22f90c67353dde4daabcaf331ea24602160405180806020018381526020018281038252603c81526020018061564a603c91396040019250505060405180910390a17f74e1ac8c21a78462b105c880756ea2c03e7b8afd283962c100d2c7b8dfce5cc4600560405180806020018381526020018281038252603c81526020018061564a603c91396040019250505060405180910390a1818660000160008860020154815260200190815260200160002060040160006101000a81548173ffffffffffffffffffffffffffffffffffffffff021916908373ffffffffffffffffffffffffffffffffffffffff1602179055507fd58de87c4595cf9a31408dc5d4f37abcd3c22f90c67353dde4daabcaf331ea24602360405180806020018381526020018281038252603c81526020018061564a603c91396040019250505060405180910390a18560010180548091906001016152629190615502565b507fd58de87c4595cf9a31408dc5d4f37abcd3c22f90c67353dde4daabcaf331ea24602460405180806020018381526020018281038252603c81526020018061564a603c91396040019250505060405180910390a17f74e1ac8c21a78462b105c880756ea2c03e7b8afd283962c100d2c7b8dfce5cc4600660405180806020018381526020018281038252603c81526020018061564a603c91396040019250505060405180910390a1856002015486600001600088600201548152602001908152602001600020600001819055507fd58de87c4595cf9a31408dc5d4f37abcd3c22f90c67353dde4daabcaf331ea24602560405180806020018381526020018281038252603c81526020018061564a603c91396040019250505060405180910390a17f74e1ac8c21a78462b105c880756ea2c03e7b8afd283962c100d2c7b8dfce5cc4600760405180806020018381526020018281038252603c81526020018061564a603c91396040019250505060405180910390a18560020154866001018760020154815481106153f057fe5b9060005260206000209060020201600001819055507fd58de87c4595cf9a31408dc5d4f37abcd3c22f90c67353dde4daabcaf331ea24602760405180806020018381526020018281038252603c81526020018061564a603c91396040019250505060405180910390a17f74e1ac8c21a78462b105c880756ea2c03e7b8afd283962c100d2c7b8dfce5cc4600860405180806020018381526020018281038252603c81526020018061564a603c91396040019250505060405180910390a16001905095945050505050565b50805460018160011615610100020316600290046000825580601f106154e057506154ff565b601f0160209004906000526020600020908101906154fe91906155b4565b5b50565b81548183558181111561552f5760020281600202836000526020600020918201910161552e91906155d9565b5b505050565b828054600181600116156101000203166002900490600052602060002090601f016020900481019282601f1061557557805160ff19168380011785556155a3565b828001600101855582156155a3579182015b828111156155a2578251825591602001919060010190615587565b5b5090506155b091906155b4565b5090565b6155d691905b808211156155d25760008160009055506001016155ba565b5090565b90565b61561191905b8082111561560d576000808201600090556001820160006101000a81549060ff0219169055506002016155df565b5090565b9056fe4d696e696d756e20676f616c206973206e6f7420726561636865642c206d696e696d756e20676f616c2069732031303030207765692f686f6d652f706b726f2f4b696e67736c616e642f70726f6a656374732f646170702f636f6e7472616374732f506f73744d617070696e672e736f6c2f686f6d652f706b726f2f4b696e67736c616e642f70726f6a656374732f646170702f636f6e7472616374732f44506f737469742e736f6c2f686f6d652f706b726f2f4b696e67736c616e642f70726f6a656374732f646170702f636f6e7472616374732f5574696c732e736f6ca165627a7a72305820caf7f7984b04997061bbbb54182626a3e072464ed9757c30e1ac6377fbae2e9d00292f686f6d652f706b726f2f4b696e67736c616e642f70726f6a656374732f646170702f636f6e7472616374732f44506f737469742e736f6c",
  "source": "pragma solidity ^0.5.8;\n\nimport './PostMapping.sol';\nimport './Utils.sol';\n\n\ncontract DPostit {event __CoverageDPostit(string fileName, uint256 lineNumber);\nevent __FunctionCoverageDPostit(string fileName, uint256 fnId);\nevent __StatementCoverageDPostit(string fileName, uint256 statementId);\nevent __BranchCoverageDPostit(string fileName, uint256 branchId, uint256 locationIdx);\nevent __AssertPreCoverageDPostit(string fileName, uint256 branchId);\nevent __AssertPostCoverageDPostit(string fileName, uint256 branchId);\n\n    constructor() public {emit __FunctionCoverageDPostit('/home/pkro/Kingsland/projects/dapp/contracts/DPostit.sol',1);\n\nemit __CoverageDPostit('/home/pkro/Kingsland/projects/dapp/contracts/DPostit.sol',9);\n        emit __StatementCoverageDPostit('/home/pkro/Kingsland/projects/dapp/contracts/DPostit.sol',1);\ncontractOwner = msg.sender;\n    }\n\n    address private contractOwner;\n    uint private minGoal = 1000 wei;\n    mapping(address => mapping(uint => bool)) validAddressesWhenPay;\n\n    event ReturnPostFileUrl(string);\n\n    PostMapping.Post post;\n    modifier isContractOwner() {emit __FunctionCoverageDPostit('/home/pkro/Kingsland/projects/dapp/contracts/DPostit.sol',2);\n\nemit __CoverageDPostit('/home/pkro/Kingsland/projects/dapp/contracts/DPostit.sol',20);\n        emit __AssertPreCoverageDPostit('/home/pkro/Kingsland/projects/dapp/contracts/DPostit.sol',1);\nemit __StatementCoverageDPostit('/home/pkro/Kingsland/projects/dapp/contracts/DPostit.sol',2);\nrequire(msg.sender == contractOwner, \"You are not able to delete post.\");emit __AssertPostCoverageDPostit('/home/pkro/Kingsland/projects/dapp/contracts/DPostit.sol',1);\n\nemit __CoverageDPostit('/home/pkro/Kingsland/projects/dapp/contracts/DPostit.sol',21);\n        _;\n    }\n\n    modifier required(\n            string memory name,\n            string memory description,\n            string memory url\n        ) {emit __FunctionCoverageDPostit('/home/pkro/Kingsland/projects/dapp/contracts/DPostit.sol',3);\n\nemit __CoverageDPostit('/home/pkro/Kingsland/projects/dapp/contracts/DPostit.sol',29);\n            emit __AssertPreCoverageDPostit('/home/pkro/Kingsland/projects/dapp/contracts/DPostit.sol',2);\nemit __StatementCoverageDPostit('/home/pkro/Kingsland/projects/dapp/contracts/DPostit.sol',3);\nrequire(bytes(name).length > 0, \"Name field is required\");emit __AssertPostCoverageDPostit('/home/pkro/Kingsland/projects/dapp/contracts/DPostit.sol',2);\n\nemit __CoverageDPostit('/home/pkro/Kingsland/projects/dapp/contracts/DPostit.sol',30);\n            emit __AssertPreCoverageDPostit('/home/pkro/Kingsland/projects/dapp/contracts/DPostit.sol',3);\nemit __StatementCoverageDPostit('/home/pkro/Kingsland/projects/dapp/contracts/DPostit.sol',4);\nrequire(bytes(description).length > 0, \"Description field is required\");emit __AssertPostCoverageDPostit('/home/pkro/Kingsland/projects/dapp/contracts/DPostit.sol',3);\n\nemit __CoverageDPostit('/home/pkro/Kingsland/projects/dapp/contracts/DPostit.sol',31);\n            emit __AssertPreCoverageDPostit('/home/pkro/Kingsland/projects/dapp/contracts/DPostit.sol',4);\nemit __StatementCoverageDPostit('/home/pkro/Kingsland/projects/dapp/contracts/DPostit.sol',5);\nrequire(bytes(url).length > 0, \"Url field is required\");emit __AssertPostCoverageDPostit('/home/pkro/Kingsland/projects/dapp/contracts/DPostit.sol',4);\n\nemit __CoverageDPostit('/home/pkro/Kingsland/projects/dapp/contracts/DPostit.sol',32);\n            _;\n        }\n\n    modifier exists(\n        uint postIndex\n    ) {emit __FunctionCoverageDPostit('/home/pkro/Kingsland/projects/dapp/contracts/DPostit.sol',4);\n\nemit __CoverageDPostit('/home/pkro/Kingsland/projects/dapp/contracts/DPostit.sol',38);\n        emit __AssertPreCoverageDPostit('/home/pkro/Kingsland/projects/dapp/contracts/DPostit.sol',5);\nemit __StatementCoverageDPostit('/home/pkro/Kingsland/projects/dapp/contracts/DPostit.sol',6);\nrequire(PostMapping.contains(post, postIndex) == true, \"Post does not exist\");emit __AssertPostCoverageDPostit('/home/pkro/Kingsland/projects/dapp/contracts/DPostit.sol',5);\n\nemit __CoverageDPostit('/home/pkro/Kingsland/projects/dapp/contracts/DPostit.sol',39);\n        _;\n    }\n\n    modifier reachMinimumGoal() {emit __FunctionCoverageDPostit('/home/pkro/Kingsland/projects/dapp/contracts/DPostit.sol',5);\n\nemit __CoverageDPostit('/home/pkro/Kingsland/projects/dapp/contracts/DPostit.sol',43);\n        emit __AssertPreCoverageDPostit('/home/pkro/Kingsland/projects/dapp/contracts/DPostit.sol',6);\nemit __StatementCoverageDPostit('/home/pkro/Kingsland/projects/dapp/contracts/DPostit.sol',7);\nrequire(msg.value >= minGoal, \"Minimun goal is not reached, minimun goal is 1000 wei\");emit __AssertPostCoverageDPostit('/home/pkro/Kingsland/projects/dapp/contracts/DPostit.sol',6);\n\nemit __CoverageDPostit('/home/pkro/Kingsland/projects/dapp/contracts/DPostit.sol',44);\n        _;\n    }\n\n    function listPosts() public      returns(string memory data) {emit __FunctionCoverageDPostit('/home/pkro/Kingsland/projects/dapp/contracts/DPostit.sol',6);\n\nemit __CoverageDPostit('/home/pkro/Kingsland/projects/dapp/contracts/DPostit.sol',48);\n        emit __StatementCoverageDPostit('/home/pkro/Kingsland/projects/dapp/contracts/DPostit.sol',8);\ndata = '[';\nemit __CoverageDPostit('/home/pkro/Kingsland/projects/dapp/contracts/DPostit.sol',49);\n        emit __StatementCoverageDPostit('/home/pkro/Kingsland/projects/dapp/contracts/DPostit.sol',9);\nfor(uint i = PostMapping.iterate_start(post);\n        PostMapping.iterate_valid(post, i);\n        i = PostMapping.iterate_next(post, i)) {\nemit __CoverageDPostit('/home/pkro/Kingsland/projects/dapp/contracts/DPostit.sol',52);\n            emit __StatementCoverageDPostit('/home/pkro/Kingsland/projects/dapp/contracts/DPostit.sol',10);\n(\n                uint key,\n                string memory name,\n                string memory description,\n                string memory url,\n                address payable owner\n            ) = PostMapping.iterate_get(post, i);\n\nemit __CoverageDPostit('/home/pkro/Kingsland/projects/dapp/contracts/DPostit.sol',60);\n            emit __StatementCoverageDPostit('/home/pkro/Kingsland/projects/dapp/contracts/DPostit.sol',11);\nbool validAddress = msg.sender == owner || validAddressesWhenPay[msg.sender][i];\nemit __CoverageDPostit('/home/pkro/Kingsland/projects/dapp/contracts/DPostit.sol',61);\n            emit __StatementCoverageDPostit('/home/pkro/Kingsland/projects/dapp/contracts/DPostit.sol',12);\ndata = string(\n                abi.encodePacked(\n                    data,\n                    Utils.getPostObject(key, name, description, validAddress ? url : ''),\n                    (i == post.size) ? '' : ', '\n                )\n            );\n        }\nemit __CoverageDPostit('/home/pkro/Kingsland/projects/dapp/contracts/DPostit.sol',69);\n        emit __StatementCoverageDPostit('/home/pkro/Kingsland/projects/dapp/contracts/DPostit.sol',13);\ndata = string(abi.encodePacked(data, ']'));\n    }\n\n    function savePost(\n        string memory name,\n        string memory description,\n        string memory url\n    ) public required(\n        name,\n        description,\n        url\n    ) returns (uint) {emit __FunctionCoverageDPostit('/home/pkro/Kingsland/projects/dapp/contracts/DPostit.sol',7);\n\n\nemit __CoverageDPostit('/home/pkro/Kingsland/projects/dapp/contracts/DPostit.sol',82);\n        emit __StatementCoverageDPostit('/home/pkro/Kingsland/projects/dapp/contracts/DPostit.sol',14);\nPostMapping.insert(post, name, description, url, msg.sender);\nemit __CoverageDPostit('/home/pkro/Kingsland/projects/dapp/contracts/DPostit.sol',83);\n        emit __StatementCoverageDPostit('/home/pkro/Kingsland/projects/dapp/contracts/DPostit.sol',15);\nreturn post.size;\n    }\n\n    function getPost(\n        uint postIndex\n    ) public      exists(\n        postIndex\n    ) returns (string memory){emit __FunctionCoverageDPostit('/home/pkro/Kingsland/projects/dapp/contracts/DPostit.sol',8);\n\nemit __CoverageDPostit('/home/pkro/Kingsland/projects/dapp/contracts/DPostit.sol',91);\n        emit __StatementCoverageDPostit('/home/pkro/Kingsland/projects/dapp/contracts/DPostit.sol',16);\n(\n            uint key,\n            string memory name,\n            string memory description,\n            string memory url,\n            address payable owner\n        ) = PostMapping.iterate_get(post, postIndex);\n\nemit __CoverageDPostit('/home/pkro/Kingsland/projects/dapp/contracts/DPostit.sol',99);\n        emit __StatementCoverageDPostit('/home/pkro/Kingsland/projects/dapp/contracts/DPostit.sol',17);\nbool validAddress = msg.sender == owner || validAddressesWhenPay[msg.sender][postIndex];\nemit __CoverageDPostit('/home/pkro/Kingsland/projects/dapp/contracts/DPostit.sol',100);\n        emit __StatementCoverageDPostit('/home/pkro/Kingsland/projects/dapp/contracts/DPostit.sol',18);\nreturn string(\n            abi.encodePacked(\n                Utils.getPostObject(\n                    key,\n                    name,\n                    description,\n                    validAddress ? url : ''\n                )\n            )\n        );\n    }\n\n    function payForAccess(uint postIndex) public payable reachMinimumGoal() exists(postIndex) returns (bool) {emit __FunctionCoverageDPostit('/home/pkro/Kingsland/projects/dapp/contracts/DPostit.sol',9);\n\nemit __CoverageDPostit('/home/pkro/Kingsland/projects/dapp/contracts/DPostit.sol',113);\n        emit __StatementCoverageDPostit('/home/pkro/Kingsland/projects/dapp/contracts/DPostit.sol',19);\n(\n            uint key,\n            ,\n            ,\n            string memory url,\n            address payable owner\n        ) = PostMapping.iterate_get(post, postIndex);\n        \nemit __CoverageDPostit('/home/pkro/Kingsland/projects/dapp/contracts/DPostit.sol',121);\n        emit __AssertPreCoverageDPostit('/home/pkro/Kingsland/projects/dapp/contracts/DPostit.sol',7);\nemit __StatementCoverageDPostit('/home/pkro/Kingsland/projects/dapp/contracts/DPostit.sol',20);\nrequire(owner != msg.sender, \"You can not donate to yourself!\");emit __AssertPostCoverageDPostit('/home/pkro/Kingsland/projects/dapp/contracts/DPostit.sol',7);\n\n        \nemit __CoverageDPostit('/home/pkro/Kingsland/projects/dapp/contracts/DPostit.sol',123);\n        emit __AssertPreCoverageDPostit('/home/pkro/Kingsland/projects/dapp/contracts/DPostit.sol',8);\nemit __StatementCoverageDPostit('/home/pkro/Kingsland/projects/dapp/contracts/DPostit.sol',21);\nrequire(validAddressesWhenPay[msg.sender][key] == false, 'You already paid for this file');emit __AssertPostCoverageDPostit('/home/pkro/Kingsland/projects/dapp/contracts/DPostit.sol',8);\n\n        \nemit __CoverageDPostit('/home/pkro/Kingsland/projects/dapp/contracts/DPostit.sol',125);\n        emit __StatementCoverageDPostit('/home/pkro/Kingsland/projects/dapp/contracts/DPostit.sol',22);\nvalidAddressesWhenPay[msg.sender][key] = true;\n        \nemit __CoverageDPostit('/home/pkro/Kingsland/projects/dapp/contracts/DPostit.sol',127);\n        emit __StatementCoverageDPostit('/home/pkro/Kingsland/projects/dapp/contracts/DPostit.sol',23);\nowner.transfer(msg.value);\n        \nemit __CoverageDPostit('/home/pkro/Kingsland/projects/dapp/contracts/DPostit.sol',129);\n        emit __StatementCoverageDPostit('/home/pkro/Kingsland/projects/dapp/contracts/DPostit.sol',24);\nemit ReturnPostFileUrl(string(abi.encodePacked('{\"url\":', '\"', url, '\",', '\"key\" : ', '\"', Utils.toString(key), '\"}')));\nemit __CoverageDPostit('/home/pkro/Kingsland/projects/dapp/contracts/DPostit.sol',130);\n        emit __StatementCoverageDPostit('/home/pkro/Kingsland/projects/dapp/contracts/DPostit.sol',25);\nreturn true;\n    }\n\n    function deletePost(uint postIndex) public isContractOwner() exists(postIndex) returns(bool){emit __FunctionCoverageDPostit('/home/pkro/Kingsland/projects/dapp/contracts/DPostit.sol',10);\n\nemit __CoverageDPostit('/home/pkro/Kingsland/projects/dapp/contracts/DPostit.sol',134);\n        emit __StatementCoverageDPostit('/home/pkro/Kingsland/projects/dapp/contracts/DPostit.sol',26);\nPostMapping.remove(post, postIndex);\nemit __CoverageDPostit('/home/pkro/Kingsland/projects/dapp/contracts/DPostit.sol',135);\n        emit __StatementCoverageDPostit('/home/pkro/Kingsland/projects/dapp/contracts/DPostit.sol',27);\nreturn true;\n    }\n}",
  "sourcePath": "/home/pkro/Kingsland/projects/dapp/coverageEnv/contracts/DPostit.sol",
  "compiler": {
    "name": "solc",
    "version": "0.5.8+commit.23d335f2.Emscripten.clang"
  },
  "schemaVersion": "3.0.11",
  "updatedAt": "2019-12-05T22:06:04.782Z",
  "devdoc": {
    "methods": {}
  },
  "userdoc": {
    "methods": {}
  }
}